:020000040000fa
:10000000f07f0020313900007f1b0000a723000093
:1000100000000000000000000000000000000000e0
:100020000000000000000000000000006b1700004e
:1000300000000000000000006b170000bd3f000042
:100040006b1700006b1700006b1700006b170000a8
:100050006b1700006b1700002d3100006b170000bc
:100060006b1700006b1700006b1700006b17000088
:10007000713600006b1700006b1700006b17000053
:100080006b1700006b170000e53f00006b170000c6
:100090006b1700006b1700006b1700006b17000058
:1000a0006b1700006b1700006b1700006b17000048
:020000040000fa
:1000b000f8b5c046f8bc08bc9e467047c938000079
:1000c000f8b5c046f8bc08bc9e467047a138000091
:020000040000fa
:0800d000f42100000100000012
:020000040000fa
:1000d800f0b58fb004af002003f0e2f904f000f9a6
:1000e80004f016f9642004f0a1f904f0b3f9cb4a3e
:1000f800cb4b1900002004f023faca4b00221a60e7
:100108008023db00c84ac949002002f087fa04f0be
:1001180069fa03007b61786904f062f8031c3b61ab
:100128000e257c1904f02cf8030023807b191b880a
:10013800180004f055f8031cbb60b86803f03cfcd9
:100148000022bb4b01f064f903000c0025001c00e1
:10015800386903f031fc02000b000020b44902f0ba
:10016800c1fa02000b002000290001f051fa030037
:100178000c001a0023000020ad4902f0b3fa030076
:100188000c001800210003f059f9031c7b60786803
:1001980003f0c2ff03003b60386804f021f8a54b68
:1001a800a5491a0002f0a6fd04f0d2f9a34b1800e5
:1001b80003f0f6ffa24aa34b1100180003f0f0ff6a
:1001c800a14b180003f0ecff80239a009f4b11000d
:1001d800180003f0e5ff9e4b9e4c9f491a00230030
:1001e800080003f0ddff964a9c4b1100180003f04d
:1001f800d7fffa23da009a4b1100180003f0d0ff5a
:10020800984b994c99491a002300080003f0c8ff3d
:10021800974b0121180003f0c3ff3a68954b110072
:10022800180003f0bdff944b180003f0b9ff04f069
:1002380087f8fa239a00914b1100180003f05aff2f
:100248008e4b180004f070f8031e2fd08c4b1b68df
:100258005a1c8b4b1a60774b9a698a4b1b68d218c9
:10026800884b1a60874b1a68854b1b681900100069
:1002780002f008fc03001a00834b1a606d4b1b6ade
:10028800824a53431a146b4bda616a4bda69804b22
:100298009a61684b00221a62664b00229a61fa231f
:1002a8009a00764b1100180003f024ff794b1b7855
:1002b800dbb2002bc4d0774b00221a70594b1b6855
:1002c800002bbdd0744b00221a60c046714b1b78be
:1002d800dbb201225340dbb2002bf7d1514b1b6834
:1002e800002bf3d1002003f0c9fc6c49982280232d
:1002f8009b028b506949942280239b028b5067494b
:10030800982280239b028b506449982280239b0269
:100318008b508023da00444b1100180002f006fcd1
:1003280003007b625d49942280239b028b5000234b
:100338003b6213e07b6a1a1d7a621a6813009b00fd
:100348009b189b001900002004f006f80100544b8c
:100358003a6a9200d1503b6a01333b623b6a514a88
:100368009342e7dd4d49942280239b028b50002362
:10037800fb61f4e04c4b180003f05afe1a23fb18fb
:1003880000221a803de01a243b191a88264b520095
:10039800d25a464b1a80454b1b88180003f020ffa1
:1003a800031c4349181c02f05efa031c4149181c3f
:1003b80002f056fc031c1a1c3f4b1a603b191d889f
:1003c8003a4b1b881e003c4b1b68181c03f0f4fac0
:1003d80003000c001a22ba181188314a89008a5879
:1003e80036480292009301943200290003f0d8fea7
:1003f800072003f045fb1a243b191a883b190132e0
:100408001a801a217b181b88264a9342bbd90023dd
:10041800fb617b1800221a8098e0c046e441002066
:10042800a52e0000f4410020002000201a400042c0
:100438000000f03f1841002000401c462410000036
:100448001027000060100000a0100000cc10000071
:10045800f168e388b5f8843fe81000000411000053
:1004680020110000d7a3703d0ad7ef3f3c110000d0
:10047800581100007411000090110000d4410020b0
:10048800f0410020ec410020e841002066660100b0
:100498003c4100200e420020fc4200200044004164
:1004a80000280020ff010000d01100000c420020ad
:1004b8003333d33f00f07f45f8410020fc110000a2
:1004c800fb695a1cfa612f4a802189008c466344d3
:1004d8005b009a5a2c4b1a802b4b1b88180003f090
:1004e8007ffe031c2949181c02f0bdf9031c28498a
:1004f800181c02f0b5fb031c1a1c264b1a601a21a3
:100508007b181b88802292009d181f4b1b881e0099
:10051800204b1b68181c03f04ffa03000c001a212b
:100528007a1811881c4a89008a581c48029200933c
:1005380001943200290003f033fe072003f0a0faeb
:100548001a217b181a887b1801321a801a23fb1883
:100558001b88134a9342b3d9fb690133fb61fb69da
:100568000f4a934200dc05e70e4b00221a600e4b3f
:1005780001221a608023db00024a0c49002002f0a5
:100588004df85de6002000200c4200203333d33fb5
:1005980000f07f45f841002000300020fc110000e9
:1005a800ff010000f4410020fc4200201a400042f4
:020000040000fa
:1005b800f0b59bb013930b6815900a938b680d9157
:1005c8000b930b694d681893cb68029313680893d3
:1005d80053680898069300220023069903f02efb1f
:1005e80000280dd10a9b5b073bd408200a9b0340d7
:1005f80009930b9b0393099b002b0fd0202306e044
:10060800802212069446069b634406932d23029a81
:1006180013700b9b013b039301230993069b0899d5
:100628005b005b08924a00291dd193421bd10299b5
:10063800139b8c46099a413b624410008d49192b43
:1006480000d98d4903f0c2ff029803f0cdfe0a9b42
:100658000200009302990b9b159802f0dffd1bb076
:10066800f0bd2b23d3e7934203d80ed1089b002b70
:100678000bd00299139b8c46099a413b62441000a7
:100688007e49192bded97e49dce700220023089831
:10069800069903f04dfc00267a4f002400283ed12d
:1006a800040002e00134049e059f0022764b3000ce
:1006b800390000f0adff089a069b0490059103f0fd
:1006c8009efa0028eed00023049320e06f4b9c4252
:1006d80014da049b002b11d100226d4b089806995f
:1006e80000f096ff6a4b089006913000390000220e
:1006f80000f08eff012306000f000493300039003c
:100708000022614b01f0eeff06000f00013c3200b1
:100718003b000898069903f091fa0028d6d113985f
:1007280003f046ffc3b20c93002d00da94e1049362
:10073800672b00d0b2e0002d00d189e1231d02db38
:10074800ac4200daa6e06523b6e0002200230e9250
:100758000f9303e106960797049b2600652b00d0ac
:100768001ae1002618e1129b002b0bd1002e09daa2
:10077800029a14992e335354039b0137013b039378
:1007880001231293ea193b009446302102e0029ab1
:10079800d15401339c45fad1039aeb19551b029a9f
:1007a80030305f1cd0546b1e0393002521e00d9b55
:1007b80014971b691093053bbb4200d8f5e0069ad5
:1007c800079b08980e9901f08dff02f0a7f810908a
:1007d800119103f001fb092800dd092010230a9a72
:1007e80013400343bfd10c9b672bbcd1002ec9da41
:1007f80001358020000684460e99089a61440b0052
:100808001098119900920193069a079b03f0c8fe6d
:1008180080231b06cb1808900e9306980799002290
:10082800194b01f05fff013e06900791b9e00a9b62
:10083800db0600d4bde02e23029ad3550137b8e079
:1008480020000a2102f068f9029b3031013d595518
:1008580020000a2102f016f9039b0400013b0393d0
:10086800b7e0029b03991a5c5b181a540138e0e060
:100878000000f07f884500008c450000904500008e
:10088800944500000000f03f00002440d4feffff24
:1008980000005043002c0eda66230493049b0135b4
:1008a800662b0ad1002c02da002600246d4f0c9b1f
:1008b800672b00d02d1966230493089b0e960f977b
:1008c8001293069b1093002314930e9a0f9b129871
:1008d800109901f007ff02f021f81690179103f024
:1008e8007bfa19908020000684461099129a614478
:1008f8000b0016981799009201930e9a0f9b03f01c
:100908004ffe80231b06cb18129010930e980f9958
:10091800554b002201f0e6fe149b0e900f91013317
:1009280014939d42d1d10022504b00f071fe0e90dd
:100938000f9102000b001298109903f07ff900281c
:1009480000d002e70e9a0f9b1298109903f0f0fa64
:10095800002803d0199bdb0700d4f6e60e9a0f9bfc
:100968000898069900f054fd002208900e913e4b1d
:100978003000390000f04cfe089a0e9b0690079153
:1009880003f03cf8002800d1e4e6049b0134662b10
:1009980000d0e1e626000135731b0025099f169358
:1009a8001295169b9e4200d001e7129b002b00d1a6
:1009b8003de70026029bdb1906931e70049b652bfe
:1009c8002ad1189b5d1e029b5e55b44201da64422f
:1009d8000136002c00d033e7189beb1a0333002ba9
:1009e80000dd2de76a1e2d23002e00d1023b02995f
:1009f800023d8b54139b413b192b01d8452304938b
:100a0800029b5919049b0b70039b023b0393af4253
:100a180002da069803f0dafd03230a9a1340022b40
:100a280000d011e6039b002b00dc0de6029803f0d2
:100a3800dbfc099b834200dc13e7029a30219446d1
:100a480063441800039a03f055fd00230b93fbe55c
:100a5800012573e6062571e60c9b672bfad00493f3
:100a680006251be70000f03f00002440000014406a
:020000040000fa
:100a78000023f0b506001500b1b00791039307995c
:100a88000b78002b00d10ce101235b420c9310abd7
:100a980000240e9380230b940d940f930b5d002b71
:100aa80001d0252b2ad1002c06d02200300003f0db
:100ab80003f9079b1b190793079b1a78252a00d06f
:100ac800e4e0013304930793022301219c46102795
:100ad800079803782b2b1ad025d8202b1ad0232b34
:100ae8001dd02a2b28d003f02bf80d90079b1a78dd
:100af800303a092a31d801330793f7e70134cde7b3
:100b08000b9b05930b4301300b930790e0e70423fd
:100b18000b9a0fe00b9b0593059a08230ae00b9ba1
:100b280005933b43efe72d2bead0302bd9d1624612
:100b38000b9b05931343e6e72b6801301a1d1b68ce
:100b480007902a600d93002b07da0b9a5b420592f7
:100b5800012205990d934a400b920b9bda0702d5a7
:100b6800022293430b93079b1a782e2a0ed1002258
:100b7800581c0c9207905a782a2a27d102330793d7
:100b88002b681a1d1b682a6005930c9307a803f0ad
:100b98003df9079b0700187803f00afd692800d182
:100ba80082e034dc632800d1dbe01adc252800d1a0
:100bb800e8e0612858d0049b0122079300235242a1
:100bc8000c920b930d9300930232e5e002f0b8ff0c
:100bd8000c90079b1a78303a092ad7d80133079323
:100be800f7e7642860d06728e5dc2a00390008a800
:100bf80003f0b5f9002800d1afe0079b0ba95a1cf8
:100c080007921b7808aa3000fff7d2fc3de0702855
:100c180000d17de016dc6e2800d197e06f28cad19c
:100c28002b000022390008a801f0befd002800d1e1
:100c380093e0079b08aa01330ba93000079303f040
:100c4800e4fc22e0752840d078284fd07328b2d130
:100c5800802f00d081e0079b2a6801330793131d7a
:100c68002b601268002388e02a00390008a803f0e6
:100c780076f9002800d170e0079b0ba95a1c07924f
:100c88001b7808aa300003f0c2fc2418039b1c1927
:100c9800a34200dc82e04f22414b1a6001235b42f1
:100ca8000393039831b0f0bd2b000122390008a846
:100cb80001f07afd002850d0079b08aa01330ba940
:100cc8003000079301f084fedfe72b000022390093
:100cd80008a801f069fd00283fd0079b08aa013346
:100ce8000ba93000079303f090fccee72b000022fd
:100cf800390008a801f058fd00282ed0079b5a1c7f
:100d080007921b7808aa0ba9300003f080fcbce707
:100d18002b000022f02108a801f046fd00281cd075
:100d2800079b099a01330793089b13430cd11d4f66
:100d3800380003f059fb390002000b9b00930d9b10
:100d4800300002f06bfaa0e77823dbe7039b390059
:100d58001a1908a82b0002f0d9fa079b0133079348
:100d680094e7802ff9d1079b013307932b681a1d4d
:100d78001b682a6008aa137001230ba9300003f02e
:100d880048fc82e7802fe8d10122079b01330793b3
:100d98000b9b049300930d9b0349d1e703946ee6e4
:0c0da80000420020f4450000fa45000065
:020000040000fa
:100db4005c4100204c0000000000000008400020be
:100dc4008000000000000000083c00200004000037
:100dd40000000000d8400020400000000000000097
:100de400a84100200c00000000000000cc410020bd
:100df4000800000000000000e44100201000000092
:100e040000000000fc42002004000000010000007b
:100e140001000000f4410020040000000000000074
:100e24000e4200200100000000000000002000200d
:100e340000080000000000000c4200200200000036
:100e4400000000003c4100202000000000000000e1
:100e5400184100202400000000000000f841002098
:100e64000400000000000000d4410020080000003d
:100e74000000000000280020001000000000000016
:100e8400b44100200c00000000000000000000201d
:100e94000020000000000000fc41002008000000c9
:100ea4000000000088400020500000000000000006
:100eb400104200206c000000010000001c420020d1
:100ec400184200201c420020000000002500000001
:100ed40008380020000400000000000000000000aa
:100ee40000000000000000000000000000000000fe
:100ef40000000000000000001f4600000000000089
:100f04000000000000000000000000007d3300002d
:100f140000000000000000000000000000000000cd
:100f24000000000000000000003800200804000059
:100f340000000000dc42002020000000010000004e
:100f44000100000003000000000000000000000099
:100f5400000000000000000000000000dc41002050
:100f6400dc410020080000000000000004420020d2
:100f740004000000000000007c420020600000002b
:100f84000100000001000000030000000000000058
:100f9400000000000000000000000000000000004d
:100fa400bd3500000000000000000000000000004b
:100fb400e1450000073800000000000000000000c8
:100fc400000000000000000000000000000000001d
:100fd400000000000000000000000000000000000d
:100fe4000000000000430020040000000100000095
:100ff400010000000842002004000000000000007e
:10100400c04100200c0000000000000000000000af
:101014000000000066666666666666666666666604
:020000040000fa
:101024000a0d2d2d2d2d2d2d2d2d2d2d2d2d2d2d2f
:101034002d2d2d2d2d2d2d2d2d2d2d2d2d2d2d2ddc
:101044002d2d2d2d2d2d2d2d2d2d2d2d2d2d2d2dcc
:101054002d2d2d2d2d2d2d2d2d2d2d000a0d204422
:1010640065736372697074696f6e2020202020207c
:1010740020202041444320444d41202564205075c4
:101084006c736520446574656374696f6e202020f9
:101094002020202020202020202020000a0d204273
:1010a40075696c642054696d653a202020202020e5
:1010b4002020204a616e20333120323032352031f5
:1010c400363a31323a3439000a0d20424c4f434b00
:1010d4005f53495a453a20202020202020202025f3
:1010e4006400c0460a0d20424c4f434b2054494de6
:1010f400453a202020202020202020256600c046bc
:101104000a0d204652455155454e43593a20202058
:1011140020202020202020256400c0460a0d2047de
:101124004f4552545a454c5f5448524553484f4cce
:10113400443a20256400c0460a0d2044414d5049dc
:101144004e475f464143544f523a202020202025e9
:101154006600c0460a0d2057494e444f575f534915
:101164005a453a2020202020202020256400c04613
:101174000a0d2053414d504c45524154453a2020cc
:1011840020202020202020256400c0460a0d2d2d7b
:101194002d2d2d2d2d2d2d2d2d2d2d2d2d2d2d2d7b
:1011a4002d2d2d2d2d2d2d2d2d2d2d2d2d2d2d2d6b
:1011b4002d2d2d2d2d2d2d2d2d2d2d2d2d2d2d2d5b
:1011c4002d2d2d2d2d2d2d0a0d00c0460d0a5472e6
:1011d400616e7366657272656420582072657375fa
:1011e4006c747320746f20617272617920696e204f
:1011f4005352414d0d00c04641444320436f756e28
:1012040074205b25645d203d20253034642c20410e
:10121400444320496e70757420566f6c7461676521
:10122400203d202566205620476f6572747a656cd0
:08123400203d2025640a0000a2
:020000040000fa
:10123c00f0b5ce46474680b50b0d644a013b89b0ec
:10124c000c00934215d902000b0012184b411500eb
:10125c005f4a934208d800d1b3e05e4a934200d86b
:10126c00a9e0002c00daa0e009b00cbc904699462d
:10127c00f0bd07aa02f042fc079b05009946564bad
:10128c000c0099426fdd554b00222800210003f021
:10129c006df9012206000f0052422800210002f0d5
:1012ac000bfa00224e4b00f0b1f802000b0030009c
:1012bc00390001f015fa04000d0022002b0020006b
:1012cc00290000f0a3f9474b060098460f000200d6
:1012dc000b004046022101f0d1f843461033009038
:1012ec0001913200180003213b0001f05bfe0290db
:1012fc000391484602f0baff3b4a049005910098ce
:10130c0001993a4b03f032f9029a039b01f0e8f988
:10131c0032003b0000f07af922002b0000f076f945
:10132c0022002b0000f072f8049e059f04000d00b3
:10133c002f4a304b3000390000f068f902000b00e6
:10134c002000290000f062f8002204000d002a4b56
:10135c003000390000f05af902000b00200029007f
:10136c0000f054f880e7994202d1244b98428ad875
:10137c0001235b429c460022194b28002100e144ca
:10138c0003f0f4f80122524204000d0002f094f92b
:10139c000022134b00f03af802000b002000290049
:1013ac0001f09ef904000d0087e72122144b002068
:1013bc001a60144958e72222114b00201a60124976
:1013cc0052e7002d00d148e74ee7c046fd0700006c
:1013dc000000e0ffffff1f009ea0e63f0000f03f73
:1013ec000000e03f104000009ab5b312ff075040d8
:1013fc00a80c615c10d02bbf0030e63fcd3b7f6664
:0c140c00004200200000f87f0000f0ff0c
:020000040000fa
:10141800f0b40125ed070f005f405ad48b4200d18c
:10142800824205d950404240504059404b405940b3
:101438004e18760ddf187f0d3bd0741c640529d03b
:10144800f41b352c26d80e0ddb022b43db0ac90210
:101458002943c9121700202c1ed2e741e240574009
:10146800e3415a40a340e3405a40002480185941c0
:101478000ad3b21c520521d0c207012f62411700be
:101488004008cb0718434908013636054208af41e2
:1014980060417141f0bc7047203c06d01f00e74115
:1014a800e3405f400024012a6741c0186141ebd343
:1014b800dfe7002eeed129400020ebe701363105a9
:1014c8000020e7e7e742e5d10020c143090dc90440
:1014d800e0e76b400e00871a9e4104d26e40c01ba5
:1014e800b141d21973414e18df18ac0ae642e9d26d
:1014f800760d7f0d31d0f41b362ccbd8b4460e0dab
:10150800db022b43db0ac9022943c90a012c32d862
:1015180004d1d4075208df073a435b08ef0a644254
:10152800904199411ed0002239424dd124194041a1
:1015380049410124394204d1013400184941394252
:10154800fad06246a24204d9361b013e36058919f3
:10155800a0e7f10ac90700209ce736429ad100208b
:10156800002197e70200224394d0b842ded201005e
:1015780020002024e3d1202c13dd203ce241170079
:10158800a240e2405740e3415a40a340e3405a405a
:10159800012fbf410137174300227c4298419141f6
:1015a8000ce01700e741e2405740e3415a40a340ae
:1015b800e3405a407c429041994100220f0303d2f4
:1015c800013e241940414941013e36054708ac41d6
:0815d80050417141f0bc704765
:020000040000fa
:1015e00008d1002806d1f54204d801d3002a01d140
:1015f0006d0d09d10020c143090dc904f0bdf9d119
:101600001242f7d1640df5d00020c14349054908c5
:10161000a6e000206146f0bdf0b50127ff070e00ef
:101620005e403e40b446be0a4c18dd18f442d7d2a4
:10163000f542e4d2640decd06d0dead06419c90214
:101640003943460dc0023143db023b43db0a10b491
:101650008e4685b297b26f43140c6c433e0ca419ae
:10166000260c2404bfb227439cb26c43a419190c66
:101670006943250ca4b249190d04090c6419000c26
:1016800095b245433e0c76193743bfb2360c150c64
:101690004543ad19a6b2240cad192e0437432e0cc8
:1016a00036199db24543ad19acb22e0c89191d0ceb
:1016b00045436d182e04290c3443704680b295b210
:1016c00045433e0c76193743bfb2360c150c4543e3
:1016d000ad19a6b2ad19240c2e0437432e0c3619c1
:1016e0009db24543ad19acb22e0c89191d0c454372
:1016f0006d182e043443290c75462d0c90b26843a6
:101700003e0c80190604bfb23e43070ca0b23f183e
:10171000120c6a43d019020c80b2240ca4189ab29d
:101720006a43121914042043120c89181b0c6b43d2
:10173000c91810bc01273d05294203d1b619404103
:101740004941013cff077d0d013d641b0bdb6d0032
:10175000ac4209da240500254208be4168416141d6
:0a17600066463143f0bd54e74ee742
:020000040000fa
:02176a00fee798
:020000040000fa
:10176c00f0b5de4657464e464546e0b58fb009907b
:10177c000d91012800dca8e00223089377e0029980
:10178c00069801f06ef8041c039f391c0b9e301c4c
:10179c0001f067f8011c201c02f0e0fe051c029908
:1017ac00301c01f05ef8041c391c069801f059f845
:1017bc00011c201c00f040f90390079b0133079398
:1017cc00059a0832059202950a9a934249da059dc8
:1017dc002b000c9a9446634400241e00a2462c0055
:1017ec00089b9846099b9946276804976368009361
:1017fc00376875680299381c01f033f80190039929
:10180c00281c01f02ef8011c019802f0a7fe019093
:10181c000399381c01f025f8071c0299281c01f0cb
:10182c0020f8011c381c00f007f9051c0199049fd5
:10183c00381c00f001f92060291c009800f0fcf81d
:10184c0060600199381c02f089fe3060291c0098f8
:10185c0002f084fe7060c2445c445e44d145c3dc3b
:10186c008de7089b5b000893099a9a422ddb089e32
:10187c00300002f0fbfc02000b001748174900f087
:10188c002fff01f0d9fd02f095f804000d0000f0d7
:10189c0001fa01f0d1fd06902000290000f06af950
:1018ac0001f0cafd0b9072100a92012ed9dd0d9930
:1018bc000591f3009b46d3000c9300230393fe2366
:1018cc009b0502930023079381e70fb03cbc904625
:1018dc009946a246ab46f0bd182d4454fb2119c0c5
:020000040000fa
:1018ec00ff2270b50100051c43001206934200d183
:1018fc0078e0484a934200d989e0002831db464918
:10190c0000f09af8444900f097f8444901f0a6f920
:10191c0002f054f9040002f0c5fb01232340013b03
:10192c00de078023fc211b069c468905664402f0d9
:10193c0015fe3b49041c00f094ff291c00f07cf8b8
:10194c003849051c201c00f08cff011c281c00f0e1
:10195c0073f8354a4300041c5b08934247d8704027
:10196c0070bd2d4802f0fafd2b4900f065f82b49ab
:10197c0001f074f902f022f9060002f093fb8023c7
:10198c0001241b06fc219c463440013c8905e407dc
:10199c00644402f0e3fd2249061c00f062ff291c9e
:1019ac0002f0dcfd1f49051c301c00f05aff011c25
:1019bc00281c00f041f81c4a4300051c5b089342ac
:1019cc000ed9011c00f04dff0522011c174801f037
:1019dc0093fd011c281c00f044ff291c00f02cf87e
:1019ec006040bde72122124b12481a60b8e7011c77
:1019fc0000f037ff0522011c0c4801f07dfd011c95
:101a0c00201c00f02eff211c00f016f8a7e7094857
:101a1c00a6e7c046fffffffedb0fc93fdb0f4940c7
:101a2c00001049c07a771537fee6db2ec044000063
:081a3c00004200200000c07f01
:020000040000fa
:101a44000122d20703004b403dd430b4431a01d2e3
:101a5400c01ac9184b004400240eff2c29d0002cb6
:101a640024d01b0e20d0e31a182b1ddc09021143cd
:101a7400c40d000210435d4219350a00aa40d20980
:101a8400d940451801d36d080234013ce405280a05
:101a94000121c9072d062a438a4160414100090eec
:101aa400ff2901d3c00dc00530bc7047c00fc0076b
:101ab400fae742001823da41ff2af5d07f2000011b
:101ac4000c300005f0e7a4465140431a02d25340bb
:101ad400c01ac9184b00090211431b0e4400240efe
:101ae400ff2c41d0002b10d05b421b19012b10d3cb
:101af40022d1c30d4002401a10d3db050100400a75
:101b0400c90591415841644670472442fbd10020e5
:101b1400f9e7c30d40024900401af4d00021013115
:101b24004000fcd38c4204d95b1adb05400ac01880
:101b3400e9e7180ac007e6e7192be4d801330c00db
:101b4400d940dc414c40012c4941c30d00021043f3
:101b5400441a01d4a4006408013bdb05200a2406ce
:101b64009441584164467047ff2b01d04102cad0ca
:0a1b74007f2000010c300005c5e7da
:020000040000fa
:021b7e00fee780
:020000040000fa
:101b800002000b00f0b583b0009201934b005d089a
:101b9000374a5b0d013b06000f000400934250d80a
:101ba000344a354b2900fff737fd344b0022fff74d
:101bb00033fc02f015f9c3071ed4002820d12200ff
:101bc0002b0020002900fff727fd02000b002c4806
:101bd000082100f059fc02000b0020002900fff74b
:101be0001bfd2b002200fff717fc019bdb0fdb071f
:101bf0004b40190003b0f0bd802109067b181f007f
:101c000002f03afb00221f4b00900191fff704fd08
:101c100002000b002000290002f0aefc1a4a04006a
:101c20000d0000980199194bfff7f6fc02000b001c
:101c300020002900fff7f0fb0096019704000d003b
:101c4000bde700280cd00098019900184941104bbd
:101c5000994202d830003900cce700200d49c9e78d
:101c60000d4b9d42efd121220c4b1a60ebe7c04691
:101c7000fd07000083c8c96d305fd43f0000e03f1e
:101c8000c83a0000002209409ee59e4befaee23ebe
:101c9000ffffdfff0000f87f0000f07f0042002020
:020000040000fa
:101ca000f0b5c6464b005f08364a5b0d013b00b5f8
:101cb0000600934252d8344a344b3900fff7acfb4c
:101cc000334a344bfff7a8fc0022334bfff7a4fb49
:101cd00002f086f8804602f0cffa00222e4b02f086
:101ce0004bfc00222d4b04000d00fff795fc020079
:101cf0000b003000390002f03ffc294a06000f00bb
:101d0000284b20002900fff787fc02000b00300061
:101d10003900fff781fb02000b0004000d00fff704
:101d20007bfc02000b002048082100f0adfb020004
:101d30000b0020002900fff76ffc22002b00fff7ab
:101d40006bfb030040460a00c00702d58022120642
:101d50008a181800110004bc9046f0bd00280ad073
:101d600000184941114b994202d80023104af0e76c
:101d70000023104aede7104b9f42f1d121220f4b77
:101d80001a60ede7fd070000182d4454fb21f93fd0
:101d900083c8c96d305fd43f0000e03f0022094096
:101da0009ee59e4befaee23ec83a0000ffffdfff2c
:101db0000000f03f0000f87f0000f07f00420020ac
:020000040000fa
:101dc000f8b5020004000d000b0012196b41384aef
:101dd000934263d9002965db364a93425dd80026d9
:101de000354a4b08d21a130334499b0e9b005b58ab
:101df0003000d71a3b0032003900fff70dfc2b00f2
:101e00002200fff709fc0122524201f05bfc0200b4
:101e10000b0000202a4902f0affb32003b00fff725
:101e2000fbfb02000b0006000f00fff7f5fb2b0089
:101e30002200fff7f1fb0122524201f043fc0200b5
:101e40000b002048204902f097fb32003b00fff7cf
:101e5000e3fb02000b0006000f0020002900fff743
:101e6000dbfb04000d0002000b0030003900fff71f
:101e7000d3fb02000b000020144902f07dfb2b0075
:101e80002200fff7c9fb0122524201f01bfc0200b5
:101e90000b0020002900fff7bffaf8bdcb0f002090
:101ea000d907fae721220a4b00201a600949f4e712
:101eb000ffff1f00ffffdfff0000e85fdc1f0000e7
:101ec0000000f83f0000c0fffffff73f0000f03fb9
:081ed000004200200000f87f31
:020000040000fa
:101ed800f0b5de4657464e464546e0b583b08046e7
:101ee80000296ed00024384f0726384b9c469b4665
:101ef8009946009108e03648415549468a60621c77
:101f08000134009991424cd97a683240012a16d09e
:101f18009d68da6892466a1c19698a4289410a40b2
:101f280092453fd04146095d786830400128e2d1aa
:101f38006d0027484155013500214155dde76246ce
:101f48009568d26892466a1c614609698a42894145
:101f58000a40924526d0610001204044405c0002be
:101f680082464046415c50460143019178683040c2
:101f7800012809d0694609798a46154950464855c5
:101f880059468a60621cbbe7690068460079104db3
:101f9800aa4668540d0001350199090a5046415571
:101fa800eee7140002f03af9002802d0064b0122ad
:101fb8009a75200003b03cbc90469946a246ab46b1
:101fc800f0bd0c00eee7c04600140042d8400020e7
:041fd800083c0020a1
:020000040000fa
:101fdc0000150000f82e0000674d0000026b000099
:101fec00be87000095a300007abe000066d80000f2
:101ffc004af100001b090100cd1f01005235010000
:10200c0099490100985c0100346e01005f7e01006b
:10201c00038d0100019a010045a501008aae010063
:10202c00c4b5010001bb0100debf01008dc201007f
:10203c00dec20100dbc0010073ba01001cb101005b
:10204c00b5a401003d95010066820100e06b010022
:10205c003e680100d87901004d8a01009299010077
:10206c0089a7010045b4010061bf010089c90100c5
:10207c006dd101007bd70100dfdd0100ade2010075
:10208c00bfe50100e8e6010054e60100cde30100e4
:10209c002adf010035d6010016cb01002cbe010051
:1020ac004eae0100de9b01008e8601002e6e0100fb
:1020bc007f5201004a3301005110010051e9000028
:1020cc0001be00000d8e000024590000dd1e000032
:020000040000fa
:1020dc004200f8b5130e013b051c0100fd2b54d832
:1020ec0000283adb3049fff7a7fc304900f0b6fd79
:1020fc0001f064fd070001f0d5ff802301241b06cd
:10210c009c463c40013c2a49e407061c644400f010
:10211c00a8fb291cfff790fc051c2649301c00f07d
:10212c00a0fb011c281cfff787fc234a4300051c5d
:10213c005b08934201d86040f8bd011c00f091fb94
:10214c000522011c1d4801f0d7f9011c281c00f0c8
:10215c0088fb291cfff770fcede7134802f0fef931
:10216c00124900f07bfd01f029fd040001f09afffb
:10217c00061c012020400138c4070d49301c00f01a
:10218c0070fb291c02f0eaf9c6e7ff231b069a42f2
:10219c0004d00b4b9a42cfd90a48cde721220a4be7
:1021ac0008481a60c8e7c046db0fc93fdb0f49403f
:1021bc00001049c07a771537fee6db2ec0440000cc
:0c21cc00fffffffe0000c07f004200206b
:020000040000fa
:1021d800f0b5d6464f464646c0b50426344da84607
:1021e800a946334b9a465be04a46126a002a42d017
:1021f800796a3b6a01209847bb6a01333a6b93427c
:102208009241134037e05246926a5200e0b229499f
:1022180088540132240a8c543ce002f00df8244b17
:102228001b6a002bddd0224b596a3c23204ad35c21
:10223800002b06d0936b9842d3d3136a002098479b
:10224800cfe71b4b9b6b9842cbd1194b1b6a0020e5
:102258009847c6e7184b1b7e334223d0164b1c8d7c
:10226800a4b2ab6a01332a6b9342924113404246af
:10227800d26a9a42b8d00e4ad26a9a42ead00e4a34
:10228800516807220a40012abdd0094a926ae4b27d
:1022980008498c54064a93623423d35c002bbcd182
:1022a800034fd7e71cbc90469946a246f0bdc046ee
:0c22b800d8400020084000200014004224
:020000040000fa
:1022c400f0b5060085b00f0015001c008b4265d8e0
:1022d40001d1824262d82100280002f07bf8390043
:1022e4000090300002f076f8009b21001b1a1a00bf
:1022f4002800039302f062f800900191019bbb4215
:1023040046d802d1009bb34242d8009b019c039a59
:1023140001200021f61aa74102f050f8039b002b7c
:102324002fd0019b009adb0754081c43019b5d08d6
:10233400039b9c46bd422ed801d1b4422bd8320017
:102344003b00121bab41012692185b410027b618d3
:102354005f4101235b429c446346002bead1801910
:102364007941039a04000d003000390002f01af894
:10237400039a06000f0002f021f8241a8d41200070
:1023840029000a9b002b01d01e605f6005b0f0bde0
:1023940000200021c2e7b6197f41dae700200021be
:0223a400efe761
:020000040000fa
:0223a600fee750
:020000040000fa
:1023a800f0b5ce46474680b583b00125314ca046ee
:1023b800314a304eff23994616e058002f4f3f5cb4
:1023c800bc466f466146b97101302c49085cf8710a
:1023d80001331ae06b4606331b8849460b401385c8
:1023e800244b1b7d002b20d1137e2b423dd0a068af
:1023f800e368984236d05768072038400128dcd077
:102408001e48c75c68468771013330698342804142
:1024180003401848c360506807230340012bd9d1f3
:102428006b4606331b881385dae702f009f8114b6f
:102438001b68002bbcd0434659681b7f002b08d073
:102448000c4b9b699842b3d30a4b1b6803209847ef
:10245800aee7084b9b699842aad1064b1b6803203c
:102468009847a5e7044b01221a7503b00cbc9046a7
:102478009946f0bdd840002000140042083c0020d6
:020000040000fa
:10248800f8b514001d008e1ef60086190f00b268fc
:10249800f36820002900fff7bbf832687368fef77d
:1024a800b7ff022f4ed002000b0020002900fff7d3
:1024b800aff83300083b1a685b68fef7a9ff032fe3
:1024c80040d022002b00fff7a3f83300103b1a6816
:1024d8005b68fef79dff042f34d002000b0020003c
:1024e8002900fff795f83300183b1a685b68fef778
:1024f8008fff052f26d002000b0020002900fff7d0
:1025080087f83300203b1a685b68fef781ff062fc7
:1025180018d002000b0020002900fff779f83300db
:10252800283b1a685b68fef773ff072f0ad0020082
:102538000b00303e20002900fff76af83268736804
:10254800fef766ff02000b0020002900fff760f885
:04255800f8bdc046c4
:020000040000fa
:10255c00244b00229a619a8c80218a439a841a0017
:10256c001023d1680b42fcd01f4b1b689b0e3f2bda
:10257c0035d09b028022920013431a4a9362102397
:10258c00d1680b42fcd0174b02229a841a001023fc
:10259c00d1680b42fcd0154b154a5a60154a9a600b
:1025ac001a0053785bb2002bfbdb104b124a5a60bb
:1025bc001a0053785bb2002bfbdb0c4b0f4a5a8092
:1025cc000f4a5a800f4a5a800f4a5a800f4a5a8033
:1025dc000f4b104a1a62034b00221a627047203bc1
:1025ec00c7e7c0460008004024608000000c004093
:1025fc00010301000120000000070100044100005c
:10260c0007400000174000001b4000001e40000067
:08261c00000400402208010047
:020000040000fa
:10262400f0b505012d4c6419267bf6b22c4d3f27dd
:10263400ec5de4b2e8550f37ed5dad0702d100253e
:10264400002e3bd1264e4e25032777550501234ef8
:102654007619023f3773234ead5b6d0533d5c91828
:102664000601204dad19696001011e4d495b090544
:102674002ed5d21805011b4949198a60194905014b
:102684006a5a9205920fd3409bb249194b80144a5f
:102694004021535c02252b435354516c536c9b04cf
:1026a4009b0e08220a4013430125002b06d10c4a35
:1026b4001169012383400b4313610125084a3f2319
:1026c400d4542800f0bd0601064dad196960cbe76e
:1026d4000501044949198a60d0e7c04688410020b1
:0826e40000480041784100208c
:020000040000fa
:1026ec00f0b40125ed070c005c402c40a446ae0a6a
:1026fc004c18df18f4423dd2f74245d2640d4cd051
:10270c007f0d3cd0e41bc9022943cf0adb022b43cb
:10271c00db0a0600b61a9f4104d2013cb6197f4170
:10272c00b6185f416812800d241838dd00188442f9
:10273c0025d8e80c0021b6197f41b61a9f4103d366
:10274c0040414941f7d304e0b6185f4100184941b4
:10275c00f1d32405b6197f41b61a9f4105d33743ef
:10276c00c20717430022012f5041614162461143b9
:10277c00f0bc70470cd100280ad1f74208d20020d7
:10278c00c143490d0905f1e7002a01d1f74206d0f2
:10279c000020c143090dc904eae77f0df8d00020e1
:0427ac006146e5e7b6
:020000040000fa
:1027b00010b588293cd015dc81294dd003dc802957
:1027c0004ad0002010bd822911d08429f9d119687e
:1027d000002a26d00a1d1a6000228b5e0360db17d8
:1027e000436011e0a02930d010dc9029e9d11968ac
:1027f0000724002a2ed00919a1430a0008321a60c2
:102800000b684c68036044600120dbe7c02901d0fd
:10281000f029d6d11a68111d1960136803600023ce
:10282000dee70c1d1c600b689bb203604260ebe7a7
:102830001968002a04d00a1d1a600023cb56cde780
:102840000c1d1c600b68dbb2efe71a68111d1960e4
:102850001368c3e70731cfe71968002a03d00a1dc0
:0e2860001a600b68bae70c1d1c600b68dde700
:020000040000fa
:10286e0030b405004d400124e407254042004b00e2
:10287e00120e32d01b0e3cd0ff2a33d0ff2b3fd08e
:10288e00d21800022043000a09022143090ac4b2e9
:10289e004c43000ac3b24b43000a4843210a5b185b
:1028ae00190a091801d44900013a080a7f3a2adbad
:1028be00fe2a0fd2d2051c43240601d00124214347
:1028ce00c9b280295041802901d1400840002843d7
:1028de0030bc7047ff20c005f9e71b0eff2b0ad056
:1028ee002800f5e7400206d1ff2bf3d1490202d1b1
:1028fe00f0e7ff2af4d17f2000010c300005e7e756
:10290e004902f8d1e6e743020132e9d15b12023304
:06291e00e6d9d805e4e74c
:020000040000fa
:102924004b005b0d264af0b55c1e944238d8254a0c
:102934009e1825d4332e22dc234a9b1827d4234afd
:10294400da400700214b9743f3403c000f0002405c
:102954009f4319403d000a430fd0002f0dda202376
:102964005b42f11824d480204003c8400200802137
:102974004903f1400b00a4185d4120002900f0bd7b
:102984000020002901db0021f9e71149f7e72022a3
:102994000e4b921b934001225242f2401a43d0e75d
:1029a400002becd10022c90fcb0710001900e6e779
:1029b40020218020891b400388400200d7e7c046bd
:1029c400fd07000001fcffffe1fbffffffff0f001d
:0429d4000000f0bf50
:020000040000fa
:1029d800f0b54b6889b005930b6807009c460793d0
:1029e800cb680c008e68049310685168cd0f44d0f2
:1029f8000b000200002150429941059b002b08db87
:102a08000222634693430793002d02d1079b5a077e
:102a18002ad5731e07aa02920a22009301920b007c
:102a28000200200000f037fc002d02d1079b5a0756
:102a38001ed501382d23002d00d1023b049a1354d2
:102a480023695a1e049b121a1918079b3800009311
:102a5800330000f0e3fb7b68db0503d5636898422d
:102a680000da180009b0f0bd1b07db0ff31ad1e735
:102a78001b07e5d501382023e0e7059b002bbfdacb
:022a8800c4e7a1
:020000040000fa
:022a8a00704793
:020000040000fa
:102a8c00002941d010b4041c4c40a4460123002260
:102a9c00002900d54942002800d5404288422cd359
:102aac0001242407a14204d2814202d209011b0154
:102abc00f8e7e400a14204d2814202d249005b0053
:102acc00f8e7884201d3401a1a434c08a04202d3bb
:102adc00001b5c0822438c08a04202d3001b9c08fc
:102aec002243cc08a04202d3001bdc08224300285e
:102afc0003d01b0901d00909e3e7101c6446002c24
:102b0c0000d5404210bc704701b5002001f084fd97
:102b1c0002bdc0460029f7d003b5fff7b3ff0ebcca
:082b2c004243891a1847c04614
:020000040000fa
:102b3400f0b585b000290dd0234d04004900461896
:102b440000272f60208801f0b1fa6860083502344c
:102b5400b442f6d11c4e80203100c00001f090fc3c
:102b6400340080235b01f718206800f027ff0090f1
:102b74000191606800f022ff02900391009801998e
:102b840002000b00fef746fd0090019102980399a4
:102b940002000b00fef73efd02000b0000980199b5
:102ba400fef738fcfff70af901f0e4fb0022074bbb
:102bb400fef730fd01f012f901c60834bc42d3d14e
:102bc400014805b0f0bdc0460000002000003440bc
:020000040000fa
:102bd400f0b5d6464f464646c0b582461e4ad36a2d
:102be400956a002933d0ab4234d0040001201b4a3b
:102bf40094469046184e12e04246d25c91465246a4
:102c0400013a4f4617540133326b934292411340b9
:102c1400884214d2421c0234ab4211d01000104a34
:102c2400576807223a40012ae6d15a006746bf5c3a
:102c3400277001326746ba5c62700133e4e71d0015
:102c4400054bdd621cbc90469946a246f0bd1d00b2
:102c54000800f5e70020f3e7d840002008400020f2
:042c64000014004216
:020000040000fa
:102c680030b405004d400124e407254042004b00e4
:102c7800120e26d01b0e34d0ff2a2dd0ff2b35d0b4
:102c8800d21a000220430902214343084908a00d33
:102c98005b1a02d2013a5b005b185b008b4200d3df
:102ca8005b1a4041f9d37f3222ddff2a06d2d205d2
:102cb800c91a8b425041284330bc7047ff20c005d9
:102cc800f9e71b0e03d0ff2b12d1490210d07f2049
:102cd80000010c300005efe74002f8d1ff2bedd1e1
:102ce800f5e7ff2aead14002f1d1e7e74902eed140
:042cf8002800e1e7e8
:020000040000fa
:102cfc00f8b5051c1400081c00f05cfe1e4a1f4ba6
:102d0c00fef784fc06000f00281c00f053fe0200a6
:102d1c000b0030003900fff7e3fc00f08dfb061cc4
:102d2c00fef7defd051c301cfff7d2f9061c8f21c7
:102d3c00c905281cfff795fd00f040ff60608f214e
:102d4c00c905301cfff78dfd00f038ffa060291c71
:102d5c00281cfef771fe8f21c905fff782fd00f0dc
:102d6c002dff20600023e36023616361a361fa22dd
:102d7c00d200e2612362f8bd182d4454fb211940a6
:020000040000fa
:102d8c001e4b1f4a1a601f4a9a81c02292025a6037
:102d9c001a00d369002bfcd1184a136802210b438b
:102dac001360d369002bfcd1174b00221a629a6274
:102dbc00da6234215a5408315a549a630021da8762
:102dcc001a609a60da60197519779a610b4b5a6818
:102ddc0007231340012b0ad00b4b80221a63d2001d
:102dec001a61064b80229a757c3a9a757047064b8d
:102dfc0040221a63d2001a61f3e7c0460014004265
:0c2e0c00040110402bf6ffffd84000200e
:020000040000fa
:102e1800002934d00123002210b488422cd3012485
:102e28002407a14204d2814202d209011b01f8e71a
:102e3800e400a14204d2814202d249005b00f8e7d3
:102e4800884201d3401a1a434c08a04202d3001bff
:102e58005c0822438c08a04202d3001b9c08224332
:102e6800cc08a04202d3001bdc082243002803d070
:102e78001b0901d00909e3e7101c10bc704701b514
:102e8800002001f0cbfb02bd0029f8d003b5fff705
:0c2e9800c1ff0ebc4243891a1847c04617
:020000040000fa
:102ea40010b5012802d002282ed010bd174b0122e4
:102eb4001a70174b1b68002b12d1154b1a60154a58
:102ec400982380214902d150134b1b68012becd16c
:102ed4007f33db00114a12490020fff7a1fbe4e72e
:102ee4000b4b00221a600b4a942380214902d150d3
:102ef400094b1b68012bd8d17f33db00094a0849f1
:102f04000020fff78dfbd0e7fee7c0460e4200200d
:102f1400f441002000440041fc4200200024002031
:082f24001a40004200200020c9
:020000040000fa
:102f2c00f0b51600050002278369426987b0029349
:102f3c00d31a03939b1904910596019302ac3a00a2
:102f4c002100286801f09af8019b984208d1ab68df
:102f5c00ea68ab619a18aa626b61300007b0f0bde9
:102f6c0000280cda102200236968ab620a43ab61bb
:102f7c006b616a60022f12d06368f61aede7019b51
:102f8c001b1a01936368984202d9c01a0834013f96
:102f9c0023681b1823606368181a6060cfe71e0053
:022fac00dbe761
:020000040000fa
:022fae0070476a
:020000040000fa
:102fb000f8b5ce0086191d0033001400083b1a68ce
:102fc0005b680f0020002900fef726fa22002b0084
:102fd000fef722fb3300103b1a685b68fef71cfa11
:102fe00002000b0020002900fef716fb032f17d06c
:102ff0003300183b1a685b68fef70efa02000b00fc
:1030000020002900fef708fb052f09d13300203be3
:103010001a685b68fef700fa22002b00fef7fcfa44
:10302000ff00f61b32687368fef7f6f9f8bdc0467c
:020000040000fa
:103030001e4bf0b51c68231e0dd000222100150088
:1030400013000f68bc460f6984450bd1002a06d0d7
:1030500017610b0010331800f0bd3900f1e7134b76
:103060001f60f6e7844504d9002b1ad01e68b445ca
:1030700017d30a00002ff0d1002becd01f001a68e4
:103080001969121a1037102a05d918603818016109
:103090000100103a02609c4206d1044b19603b00cb
:1030a000d9e715000b00e4e72961f8e708420020a2
:020000040000fa
:1030b0001b4b01221a701a00537e5bb2002bfbdb04
:1030c000184b1a68184b1b68db0e07211140490189
:1030d0000b435201e021c9000a401343104a1385f3
:1030e0000323d370013b5370c0235b011361537ef4
:1030f0005bb2002bfbdb0a4bc02292009a801a00c5
:10310000537e5bb2002bfbdb054b0f221a760e3a87
:103110001a751a00537e5bb2002bfbdb7047c0466a
:0c3120000040004224608000206080001d
:020000040000fa
:10312c0010b582b0002301931a4a118c0f330b4057
:10313c003f21545ce4b253540f31525cd2b2019231
:10314c00019a0220920708d512494e22885419017f
:10315c00114a5218002111730138019ad20709d56e
:10316c000c494e220120885419010b4a5218002197
:10317c00117301301901084a52185268002a04d000
:10318c00054a531899685b689847024a3f23d45400
:0c319c0002b010bd004800418841002036
:020000040000fa
:1031a800f8b5846a05000f001600002c0ad0ab6a37
:1031b8006a699b1ab3420cd2320039002800fff723
:1031c800b1fe05e001f07ef803002000002beed0f0
:1031d800f8bd002ef0d02b0034331b785bb2002be7
:1031e8001adb3400dbb2621eb95c994212d12200ac
:1031f80039002800fff796fea042e9d33f19341b97
:1032080022003900686901f04df96b6930001c191a
:0c3218006c61dde7141ee6d13400f1e724
:020000040000fa
:10322400f0b51d00012389b014000e9a06001a405f
:103234000391029201d1a5420ad8220003993000d9
:1032440000f03cfda54203d82500280009b0f0bddc
:103254002f1b01973a00102f00d91022202104a817
:1032640001f04af9019b0f2b0ed80f2204a93a4012
:10327400300000f023fd029b002be6d122000399cd
:10328400300000f01bfde0e7102204a9300000f03c
:0a32940015fd019b103b0193e4e7d8
:020000040000fa
:10329e00f7b5040019000a9fe368666800933b685f
:1032ae00100001932369013b1c00002e00da012659
:1032be000022009dea5435000123002c03dc002b74
:1032ce001cd02000febd02000a4309d1002d07dcf0
:1032de00089a921b5219002af1dd019a9207eed537
:1032ee00099b099adb1700f048fc8c460099013cbb
:1032fe00130030320a55013d6146dee710233a686d
:06330e009a433a60dde77e
:020000040000fa
:1033140010b584291fd007dc812915d0822922d039
:10332400802911d0002010bd90291cd008dc8829e8
:10333400f8d119680c1d1c600b6803601a7010e04a
:10334400a02901d0c029edd119680c1d1c600b689f
:1033540003601a6005e019680c1d1c600b680360ab
:103364001a800120dfe719680c1d1c600b680360dc
:083374001a60d2175a60f4e759
:020000040000fa
:10337c007fb51600c2680d0013000091591e8b41d9
:10338c00f31a0193836804000392694602220068d1
:10339c00029300f05ffe002808dc1822082302408c
:1033ac005340626813436360060010e0019b834244
:1033bc00fad2a268c01ae3681018e2632064002bea
:1033cc0005d0531ce3631378ad19013d2b7030000d
:0433dc0004b070bd0c
:020000040000fa
:1033e00037b5164d04002b68002b0fd000f0ecfe13
:1033f000019001a801f013f80f230f3098430199b1
:1034000000f056ff00280cd000232b60002c00d1c8
:1034100001340f230f349c4304d10c222000084bad
:103420001a603ebd042c00d204242000fff700fee9
:103430000028f6d0031f1c60f3e7c04600430020bd
:043440000042002026
:020000040000fa
:103444004b1801225205da4217d25b0d0722d20132
:103454009b1a0fd9ff2b13d2db05ca0fd2071343d4
:103464000903020d1143490ac200524100d9013136
:10347400c8187047c80fc007704706d1002804d188
:10348400c80f0002ff30c00570470123db070a00a4
:10349400c900400f084398431a4010435b0a18437d
:0234a40070476f
:020000040000fa
:0234a60070476d
:020000040000fa
:1034a80010b5134b06225a60124b1b68186800218e
:1034b80001f034f8104b1b681868002101f02ef851
:1034c80000f09ef9fff746f8fff75cfc01f078f88a
:1034d80000f012ff00f0fcfd00f09af8fff7e4fda1
:1034e80000f0aefa00f0fcf900f012f910bdc04689
:0c34f8000040004114420020f842002077
:020000040000fa
:1035040070b5941ea40004190d1c281c61681600d3
:10351400fff7abf92168fef793fa291cfff7a5f929
:10352400231f1968fef78cfa032e11d0291cfff70c
:103534009cf92300083b1968fef782fa042e07d091
:10354400011c0c3c281cfff790f92168fef778fa5f
:0c355400011c281cfff789f970bdc0465f
:020000040000fa
:1035600000230e4a10b513600d4a13600d4a136014
:103570000d4a13600d4a13600d4a53621361013303
:10358000936001f009f8fff712fd0a4c0a4b9c42c8
:1035900000d310bd08cc9847f8e7c046044200208d
:1035a0009440002090400020884000208c40002063
:0c35b00098400020bc000000c00000009b
:020000040000fa
:1035bc0070b504000d00002801d1002070bd4368d7
:1035cc009b0607d543698269934215d80023a362f1
:1035dc00a3616361e16b236c994204d2c91a012285
:1035ec00206801f01bf800232364e3639d42e4d0c0
:1035fc00206801f005f8e1e70022c36a1100984742
:0c360c006369002be2d101204042d7e7a7
:020000040000fa
:1036180010b50d4a002111705160916011730b486b
:103628000b4b58630b4c9c630b4c5c613f24195546
:103638000a4959640a490180012111704d22023159
:103648009954084a1a8010bd88410020784100200a
:103658000048004198410020818181810027800035
:0836680009090000020f000037
:020000040000fa
:1036700010b5134b9b7d002b1ad0114a137edbb281
:10368000927d52b2002a14db0d4a137edbb2927d8a
:10369000d20703d5db0701d5fef786fe084a137e65
:1036a000dbb2927d520703d55b0701d5fef794fd8f
:1036b00010bd5bb2002be7da00f0ccf8e4e7c046bf
:0436c00000140042b0
:020000040000fa
:1036c40070b5104c4b005b0da3420fd0002b0dd0f6
:1036d400d3180d4a93420adc002b0fdd0b4a1b055d
:1036e4001140194304000d002000290070bdc90fca
:1036f400074bc9070b4300241d00f5e7c90f00243d
:10370400cd07f1e7ff070000fe070000ffff0f8071
:043714000000f07f42
:020000040000fa
:1037180030b5bff35f8f62b60f4bc12080001a58d7
:103728000e4c2240c02109040a431a5040221a6054
:1037380008301a58ff25aa433f3d2a431a508022d1
:1037480052011a6004301a5822401143195080223d
:10375800d2021a6030bdc04600e100e0ffff00ff62
:020000040000fa
:1037680070b5040016001d00022a1cd043689b0691
:1037780019d4002908d1002d01d18025ed00280099
:103788000830fff729fe010020236268a160134377
:1037980063602300e5603433ff22012e00d10a2242
:1037a8001a70024be362002070bdc046a9310000c8
:020000040000fa
:1037b80037b56b46dd1d836a04002970002b0cd0d9
:1037c8006369a26a93420fd3e36a012229002000a9
:1037d8009847012805d1287805e000f073fd0028f6
:1037e800eed0012040423ebd2200343212782878c3
:0e37f80052b29042e8d05a1c62611870f3e79a
:020000040000fa
:02380600704709
:020000040000fa
:10380800104b012242215a5414315a5401315a544e
:1038180026395a543a320f39995445320a4999503f
:103828000022d0215a5401315a5405315a540131d9
:103838005a5407315a5426395a5403315a540431c8
:0c3848005a547047004400410000c34087
:020000040000fa
:1038540010b5104b5b8b0722134000d110bd0e4aec
:10386400d3870c4b80221a76793a5a831b7e5b07e6
:1038740005d5084b04211a8d1a7e0a42fbd1064b4a
:103884001b6a002bead0044b596a1b6a0220984732
:0c389400e4e7c04600140042d8400020c9
:020000040000fa
:1038a00010b5064c2378002b07d1054b002b02d016
:1038b000044800e000bf0123237010bd5c410020dc
:1038c0000000000000000000044b10b5002b03d0e6
:1038d0000349044800e000bf10bdc04600000000de
:0838e00060410020000000001f
:020000040000fa
:1038e8000f4b01221a801a00d37b5bb2002bfbdb43
:1038f8000b4bb02252001a80e022ff321a83a53afd
:10390800ff3a9a73074a0021116001225a73120282
:103918005a811a00d37b5bb2002bfbdb7047c04691
:08392800002c0042cc410020fc
:020000040000fa
:1039300010b50a4b98470a4b984700f037fa094be5
:10394000ff229343084a9360084b9847084b9847d7
:10395000084b9847fcf7c0fbfee7c0468b2a0000e7
:103960008b2a00000000000000ed00e0613500003f
:083970008b2a00008b2a0000e5
:020000040000fa
:10397800f8b506000f00012809dd012500e01d004b
:103988006b1c32001a41002af9dc002407e00028e9
:1039980000dcf8bd0025f8e70134a642f9dd29006e
:1039a800200000f067faa042f6dbc0003918e000fa
:0839b800381800f059fdefe79b
:020000040000fa
:1039c00041008c46012212068a420bd8090938238d
:1039d0001b06c918c30fdb07194340076346da42c9
:1039e00004d27047c10fc9070020704703d13823a4
:1039f0001b06c918704738231b06c9180122d204b8
:043a000011437047b7
:020000040000fa
:103a040030b401256d054c00e54215d85c00e54253
:103a140012d80c001c436400044314430fd005d295
:103a240082428b418041013030bc704790429941c1
:103a34008041013030bc7047002030bc7047012009
:043a440030bc7047db
:020000040000fa
:103a48000e4b01221a801a00937a5bb2002bfbdb23
:103a58000a4b80221a801a00937a5bb2002bfbdb98
:103a6800064b802292009a611a00937a5bb2002b6f
:103a7800fbdb024b802252009a8070470014004002
:020000040000fa
:103a880070b50d4b5e681b68db0714d50b4b5843ac
:103a9800094b9b6800280ed00021074d06e0741cd6
:103aa800a41ae318c9181300884204d9aa689a42cc
:103ab800f5d89b1af6e770bd10e000e080bb000067
:020000040000fa
:103ac800555555555555c5bfb01011111111813fa8
:103ad8001a3e011aa0012abf63f024a5e31dc73ec0
:103ae800abc05d4b45e65abe30d46a683c12e63d31
:103af8009c4908dc20e46abd95df9369ff80e83cb7
:020000040000fa
:103b08004b00f0b55b0d07000c00002b0bd0084ee6
:103b1800b34208d00749084d8c46084963440c4015
:103b28002543290000e0002338001360f0bdc0469b
:103b3800ff07000002fcffff0000e03fffff0f80cf
:020000040000fa
:103b4800030010b51a78202a0dd01100093904296c
:103b580009d900212b2a02d02d2a01d101310133a4
:103b680000200a2404e00133ece760430133801aa3
:103b78001a78303a092af8d9002900d1404210bdf4
:020000040000fa
:103b8800002b11d1002a0fd1002900d1002802d022
:103b98000021c943081c07b4024802a1401802903a
:103ba80003bdc046790a000003b4684601b502980f
:103bb800fef784fb019b9e4602b00cbc7047c046d2
:020000040000fa
:103bc8004200110e7f390fd40123db0749421f3110
:103bd8000cdd400003d2c0011843c8407047c00143
:103be8001843c8404042704700207047ff2109062b
:0e3bf8008a4200d99843184000d4d843704741
:020000040000fa
:103c060030b401256d054c00e54215d85c00e5424f
:103c160012d80c001c436400044314430cd005d294
:103c260082428b418041404230bc7047904299416c
:0e3c36008041404230bc7047002030bc7047d7
:020000040000fa
:103c440030b401256d054c00e54215d85c00e54211
:103c540012d80c001c436400044314430cd005d256
:103c6400904299418041404230bc704782428b412e
:0e3c74008041404230bc7047002030bc704799
:020000040000fa
:103c840030b50c4b3f229d5cedb2985440215a5cf8
:103c94000224a2435a541c000222635c1342fcd146
:103ca4000001054b181800230373024a3f33d5540f
:0c3cb40030bdc04600480041884100209f
:020000040000fa
:103cc000436870b50400d80512d52569954200d91e
:103cd0001500002d0bd02a00606900f0e7fb226977
:103ce00063695b19551b0022636125611a7070bd01
:0c3cf000db06fcd4200000f0f7fbf8e736
:020000040000fa
:103cfc000b00496810b50200890603d4190000f0c6
:103d0c0033f810bd190034310978c0b249b2814280
:103d1c0007d059699c6aa14203d24c1c5c610a70a1
:0c3d2c00efe711001800fff741fdeae787
:020000040000fa
:103d38001c2101231b04984201d3000c10391b0ad3
:103d4800984201d3000a08391b09984201d3000997
:103d5800043902a2105c40187047c04604030202ee
:0c3d68000101010100000000000000004b
:020000040000fa
:103d740013b50b006a46d41d5a68c1b22170d2052e
:103d840005d55a69c0b2541c5c61117016bd01227c
:103d94002100180000f0a6fb002801d02078f5e7e8
:063da40001204042f2e79d
:020000040000fa
:103dac0010b50a480168002903d14368002b00d1e3
:103dbc0010bd04008368064a9bb20c349b009b58d0
:103dcc0042682000984780002018ebe7b40d0000f3
:043ddc009844000007
:020000040000fa
:103de000f4464a1805d200f07bf801d5c017400808
:103df000604701235b05d34206d200f071f801d57c
:103e00000120c0074042604701d10042f5d0d017e1
:043e100040087047af
:020000040000fa
:103e1400f0b5050000200a4a4400a65c002e02d139
:103e240012195078f0bd296801300f78c0b2b7423a
:103e340003d112190131507829600a28ebd9f1e72e
:043e4400084400002e
:020000040000fa
:103e4800074b1a68002a01d1064a1a60064a116807
:103e5800002901d1054911601a68054b1a6070479d
:103e6800c841002008430020c44100200847002022
:043e7800c041002025
:020000040000fa
:103e7c0070b54b1e11d400241900012501e0013b43
:103e8c000cd302001a41012af9d1ca1a2e0096400d
:103e9c00a4192a009a40801af1e70024200070bd72
:020000040000fa
:103eac0070b5094d04002b68002b01d1fff7c6ff3c
:103ebc00064a286812680419a24201d32c6070bd0e
:103ecc0001204042fbe7c046c0410020c441002015
:020000040000fa
:103edc004a0010d2520d03231b02ff33d21a0ad40c
:103eec0052421f3209d4400dc90208430123db079b
:0e3efc001843d040704700207047d017704721
:020000040000fa
:103f0a0070b5140016000a004e430d00511e8a4176
:103f1a005242144001003200180000f0e0fa8642d2
:0e3f2a0003d02900fef773ff0400200070bdd5
:020000040000fa
:103f380070b4012676054c005d00e6420cd8ee42ce
:103f48000ad825430543154303d0994204d190422a
:0e3f580002d1012070bc7047002070bc704781
:020000040000fa
:103f6600002380290fdb812901dd83290bd107215d
:103f7600136807338b431900083111601a685b68b0
:0a3f86000260436001231800704739
:020000040000fa
:103f9000020000234832d356591e0b4313700423ea
:103fa0004268134005d01023134343600120404270
:0a3fb00070470364c3631800fae7ca
:020000040000fa
:103fbc0010b5074b5868074a12689a6801329a6024
:103fcc001b68002b02d0024b1b68984710bdc046e3
:083fdc00a841002010e000e004
:020000040000fa
:103fe40010b5074b987bc0b23b229a73054b1b68f4
:103ff400002b03d0034b59681b68984710bdc0467b
:08400400002c0042cc41002019
:020000040000fa
:04400c0000207047d9
:020000040000fa
:10401000edaf16204a62304029bd56b31544e9bfc2
:1040200077900d9cfe0b88c07e2615fa8380734026
:084030000fce674b80d541c0a3
:020000040000fa
:1040380010b5084c2368196800f091f8012300288e
:1040480005db23680a20196800f0d4fac30f584228
:0840580010bdc046f842002033
:020000040000fa
:10406000f7b5002507000c002e000192019b9e422f
:1040700001db2800febd62682168380000f062f8ac
:0840800001362d180834f1e7a8
:020000040000fa
:10408800f7b5002507000c002e000192019b9e4207
:1040980001db2800febd62682168380000f0daf80c
:0840a80001362d180834f1e780
:020000040000fa
:1040b000c20f12029d3201000cd001d5494202d438
:1040c000013a4900fcd5d205080a0906494100d346
:0640d00001295041704778
:020000040000fa
:1040d800054a00231360936004495160062111606a
:1040e800034a93601360704710e000e07fbb000054
:0440f800a8410020bb
:020000040000fa
:1040fc0010b50400064b9b6803604801401a800011
:10410c004018c000fa218900fef780fe606010bde7
:04411c00a841002096
:020000040000fa
:1041200041000dd2090e7f390ad449421f3105d40e
:1041300000020122d2071043c8407047c8177047d9
:0441400000207047a4
:020000040000fa
:1041440010b50c000023002809d10300002a06d072
:1041540001212000fef73cfd0028f9d001231800be
:0241640010bd8c
:020000040000fa
:1041660070b50e00050000f040f9330004000200af
:1041760001212800fff7c6fe001b431e984140425e
:0241860070bd0a
:020000040000fa
:10418800054b064a5a801a00d37b5bb2002bfbdb37
:10419800014b188b80b27047002c00421880ffff3b
:020000040000fa
:1041a8000fb407b5054b04aa1b6802ca1868019228
:1041b80000f0eaf803b008bc04b01847f842002041
:020000040000fa
:1041c80010b5054c2368002b01d1fff739fe034bce
:1041d80018682368c01a10bdc0410020c4410020df
:020000040000fa
:1041e8009d2201000ad002d4013a4900fcd5d2052b
:0e41f800080a0906494100d3012950417047c9
:020000040000fa
:10420600002310b5934206d103201840421e904168
:0e4216009b08c01810bdc45ccc540133f2e705
:020000040000fa
:10422400054b9868db68984201d3c01a7047024a6c
:0c42340012691018c01af9e7d8400020e9
:020000040000fa
:10424000054ad36a906a834201d8c01a7047024a6d
:0c425000126b1018c01af9e7d8400020cb
:020000040000fa
:10425c0070b50d001400012801d0200070bd2100a4
:0c426c002800fdf733fe0028f9d0f6e72b
:020000040000fa
:10427800054b004206d5404200b5984708bc0122cc
:0c428800d20711431847000095420000c7
:020000040000fa
:1042940042221201033a010007d002d4013a001865
:0c42a400fcd51205c30a400599187047ac
:020000040000fa
:1042b0000023054a10b514689c4203d110600361c5
:0c42c00001600133180010bd084200200e
:020000040000fa
:1042cc0010b50400fff75efe002805d1a368e26874
:0a42dc00a36163619b18a36210bd8b
:020000040000fa
:1042e800044a137802210b431370537e5bb2002bf0
:0842f800fbdb704700400042af
:020000040000fa
:10430000034b1822ff321a81024a5a607047c04696
:0843100000040042000033022a
:020000040000fa
:10431800044a138802210b431380937a5bb2002b63
:08432800fbdb704700140040ac
:020000040000fa
:10433000044b9b6802689b1a4268002093424041ec
:08434000c0b27047a841002043
:020000040000fa
:10434800044a138802210b431380d37b5bb2002bf2
:08435800fbdb7047002c004262
:020000040000fa
:1043600010b5044a800083589c101b1b59188150bb
:08437000881010bdb4410020cb
:020000040000fa
:1043780010b5fcf75fff024a024bfef7b3f910bd18
:084388001655b5bbb16b0240f4
:020000040000fa
:1043900013b50400019201aafcf76efb6368db060b
:0843a00001d50120404216bdc9
:020000040000fa
:1043a800d0400b1cd1409c46203ad340184352427f
:0843b80063469340184370476f
:020000040000fa
:1043c0009140031c90409c46203a9340194352422e
:0843d0006346d3401943704716
:020000040000fa
:1043d80010b5002903d1fff7abfc203002e0081c20
:0843e800fff7a6fc10bdc04662
:020000040000fa
:1043f0000378002b06d0030001331a78002afbd182
:08440000181a70470020fce7c8
:020000040000fa
:1044080068076c094c836a9074a07ac00080688839
:0644180000846c820081ab
:020000040000fa
:10441e00006810b5002801da002010bdfff73ffd3f
:06442e00431cfad1f8e77f
:020000040000fa
:10443400034b98611a00937a5bb2002bfbdb704745
:044444000014004020
:020000040000fa
:1044480010b5034b1c69fff7e9fe013c201a10bdab
:04445800d840002028
:020000040000fa
:10445c00034b00229a601a6801210a431a607047c4
:04446c0010e000e07c
:020000040000fa
:1044700010b5026843680c6804604c6844600a60c8
:044480004b6010bdc0
:020000040000fa
:1044840070b504000d00fff775fa29002000fdf750
:044494006bf970bd93
:020000040000fa
:1044980037450000074200000d4000000d400000b5
:0444a8000d400000c3
:020000040000fa
:1044ac0010b5002a05d00023cc5cc45401339342d0
:0444bc00fad110bd64
:020000040000fa
:1044c000abaa2abe9788083c281050b993293936e0
:0444d000d4aad5b2e3
:020000040000fa
:1044d40010b500f095f8024b1860586010bdc04646
:0444e400dc41002097
:020000040000fa
:1044e800c36a10b5002b01d0984710bd0068fff7cc
:0444f800b1fefae730
:020000040000fa
:1044fc00002a06d00300c9b2821819700133934206
:04450c00fbd1704728
:020000040000fa
:1045100003000a7818001a7001310133002af8d11b
:044520007047c046da
:020000040000fa
:104524004a424a41802310b55200db00fff71af9d2
:0245340010bdb8
:020000040000fa
:104536008a18914201d10020704700230b70013187
:02454600f7e795
:020000040000fa
:1045480003010248c018416082607047884100201a
:020000040000fa
:10455800024b00221a605a609a607047b4410020ea
:020000040000fa
:104568000122d2075140014b18470000491a0000a8
:020000040000fa
:10457800f0b40125ed076b40004c20471f140000e4
:020000040000fa
:10458800494e4600696e66004e414e006e616e00ef
:020000040000fa
:1045980010b5fff79bfffef782fffef780ff10bd07
:020000040000fa
:1045a80010b5fdf735f8029a039bfcf731ff10bdf3
:020000040000fa
:0e45b8000300413b192b01d820231843704704
:020000040000fa
:0c45c800014b82225a6070470040004105
:020000040000fa
:0c45d40010b50400fff79aff200010bd96
:020000040000fa
:0a45e00010b50068fff73afe10bda9
:020000040000fa
:0845ec000048704700366e0123
:020000040000fa
:0845f400286e696c2900250006
:020000040000fa
:0845fc0010b5fff77dfb10bdb7
:020000040000fa
:08460400004870477c420020d1
:020000040000fa
:06460c000120404270474e
:020000040000fa
:0446120000207047cd
:020000040000fa
:0446160000207047c9
:020000040000fa
:04461a0000207047c5
:020000040000fa
:04461e0000207047c1
:020000040000fa
:044624007047c046d5
:020000040000fa
:0446280000207047b7
:020000040000fa
:0200000400807a
:0440000077c700d8a6
:020000040000fa
:0200000400807a
:044004005c00ffff5e
:00000001FF
