:020000040000fa
:10000000f07f0020612e0000571600001f1b00002b
:1000100000000000000000000000000000000000e0
:10002000000000000000000000000000c3130000fa
:100030000000000000000000c3130000393400007d
:10004000c3130000c3130000c3130000c313000058
:10005000c3130000c3130000b1260000c313000047
:10006000c3130000c3130000c3130000c313000038
:10007000f52b0000c3130000c3130000c3130000de
:10008000c3130000c313000061340000c313000059
:10009000c3130000c3130000c3130000c313000008
:1000a000c3130000c3130000c3130000c3130000f8
:020000040000fa
:1000b000f8b5c046f8bc08bc9e467047f92d000054
:1000c000f8b5c046f8bc08bc9e467047d12d00006c
:020000040000fa
:0800d0006c19000001000000a2
:020000040000fa
:1000d800f0b59bb013930b6815900a938b680d913c
:1000e8000b930b694d681893cb68029313680893b8
:1000f80053680898069300220023069902f0f4ff3b
:1001080000280dd10a9b5b073bd408200a9b0340bb
:1001180009930b9b0393099b002b0fd0202306e028
:10012800802212069446069b634406932d23029a66
:1001380013700b9b013b039301230993069b0899ba
:100148005b005b08924a00291dd193421bd102999a
:10015800139b8c46099a413b624410008d49192b28
:1001680000d98d4903f016fc029803f03dfb0a9b69
:100178000200009302990b9b159802f011fb1bb02b
:10018800f0bd2b23d3e7934203d80ed1089b002b55
:100198000bd00299139b8c46099a413b624410008c
:1001a8007e49192bded97e49dce700220023089816
:1001b800069903f0e4f800267a4f002400283ed17f
:1001c800040002e00134049e059f0022764b3000b3
:1001d800390001f049f8089a069b0490059102f04d
:1001e80064ff0028eed00023049320e06f4b9c426c
:1001f80014da049b002b11d100226d4b0898069944
:1002080001f032f86a4b089006913000390000225c
:1002180001f02af8012306000f000493300039008a
:100228000022614b01f0b0fd06000f00013c3200d6
:100238003b000898069902f057ff0028d6d113987a
:1002480003f09afbc3b20c93002d00da94e10493f7
:10025800672b00d0b2e0002d00d189e1231d02db1d
:10026800ac4200daa6e06523b6e0002200230e9235
:100278000f9303e106960797049b2600652b00d091
:100288001ae1002618e1129b002b0bd1002e09da87
:10029800029a14992e335354039b0137013b03935d
:1002a80001231293ea193b009446302102e0029a96
:1002b800d15401339c45fad1039aeb19551b029a84
:1002c80030305f1cd0546b1e0393002521e00d9b3a
:1002d80014971b691093053bbb4200d8f5e0069aba
:1002e800079b08980e9901f04ffd01f069fe1090e8
:1002f800119102f0e1ff092800dd092010230a9a74
:1003080013400343bfd10c9b672bbcd1002ec9da25
:1003180001358020000684460e99089a61440b0036
:100328001098119900920193069a079b03f01cfb01
:1003380080231b06cb1808900e9306980799002275
:10034800194b01f021fd013e06900791b9e00a9b87
:10035800db0600d4bde02e23029ad3550137b8e05e
:1003680020000a2101f02aff029b3031013d595536
:1003780020000a2101f0d8fe039b0400013b0393ef
:10038800b7e0029b03991a5c5b181a540138e0e045
:100398000000f07f5039000054390000583900003f
:1003a8005c3900000000f03f00002440d4feffff4d
:1003b80000005043002c0eda66230493049b013599
:1003c800662b0ad1002c02da002600246d4f0c9b04
:1003d800672b00d02d1966230493089b0e960f9760
:1003e8001293069b1093002314930e9a0f9b129856
:1003f800109901f0c9fc01f0e3fd1690179102f085
:100408005bff19908020000684461099129a614477
:100418000b0016981799009201930e9a0f9b03f000
:10042800a3fa80231b06cb18129010930e980f99ed
:10043800554b002201f0a8fc149b0e900f9101333c
:1004480014939d42d1d10022504b00f00dff0e9025
:100458000f9102000b001298109902f045fe002837
:1004680000d002e70e9a0f9b1298109902f087ffae
:10047800002803d0199bdb0700d4f6e60e9a0f9be1
:100488000898069900f0f0fd002208900e913e4b66
:100498003000390000f0e8fe089a0e9b069007919c
:1004a80002f020fd002800d1e4e6049b0134662b0d
:1004b80000d0e1e626000135731b0025099f16933d
:1004c8001295169b9e4200d001e7129b002b00d18b
:1004d8003de70026029bdb1906931e70049b652be3
:1004e8002ad1189b5d1e029b5e55b44201da644214
:1004f8000136002c00d033e7189beb1a0333002b8e
:1005080000dd2de76a1e2d23002e00d1023b029943
:10051800023d8b54139b413b192b01d8452304936f
:10052800029b5919049b0b70039b023b0393af4238
:1005380002da069803f02efa03230a9a1340022bd4
:1005480000d011e6039b002b00dc0de6029803f0b7
:100558004bf9099b834200dc13e7029a3021944649
:1005680063441800039a03f0b1f900230b93fbe5e9
:10057800012573e6062571e60c9b672bfad00493d8
:1005880006251be70000f03f00002440000014404f
:020000040000fa
:100598000023f0b506001500b1b007910393079941
:1005a8000b78002b00d10ce101235b420c9310abbc
:1005b80000240e9380230b940d940f930b5d002b56
:1005c80001d0252b2ad1002c06d02200300002f0c1
:1005d800c9fd079b1b190793079b1a78252a00d08a
:1005e800e4e0013304930793022301219c4610277a
:1005f800079803782b2b1ad025d8202b1ad0232b19
:100608001dd02a2b28d002f0f1fc0d90079b1a78f8
:10061800303a092a31d801330793f7e70134cde797
:100628000b9b05930b4301300b930790e0e70423e2
:100638000b9a0fe00b9b0593059a08230ae00b9b86
:1006480005933b43efe72d2bead0302bd9d16246f7
:100658000b9b05931343e6e72b6801301a1d1b68b3
:1006680007902a600d93002b07da0b9a5b420592dc
:10067800012205990d934a400b920b9bda0702d58c
:10068800022293430b93079b1a782e2a0ed100223d
:10069800581c0c9207905a782a2a27d102330793bc
:1006a8002b681a1d1b682a6005930c9307a802f093
:1006b800e9fd079b0700187803f05ef9692800d167
:1006c80082e034dc632800d1dbe01adc252800d185
:1006d800e8e0612858d0049b012207930023524286
:1006e8000c920b930d9300930232e5e002f07efc2e
:1006f8000c90079b1a78303a092ad7d80133079308
:10070800f7e7642860d06728e5dc2a00390008a8e4
:1007180002f063fe002800d1afe0079b0ba95a1c2a
:1007280007921b7808aa3000fff7d2fc3de070283a
:1007380000d17de016dc6e2800d197e06f28cad181
:100748002b000022390008a801f080fb002800d106
:1007580093e0079b08aa01330ba93000079303f025
:100768003af922e0752840d078284fd07328b2d1c2
:10077800802f00d081e0079b2a6801330793131d5f
:100788002b601268002388e02a00390008a802f0cc
:1007980024fe002800d170e0079b0ba95a1c079281
:1007a8001b7808aa300003f018f92418039b1c19b9
:1007b800a34200dc82e04f22414b1a6001235b42d6
:1007c8000393039831b0f0bd2b000122390008a82b
:1007d80001f03cfb002850d0079b08aa01330ba965
:1007e8003000079301f046fcdfe72b0000223900b8
:1007f80008a801f02bfb00283fd0079b08aa01336b
:100808000ba93000079303f0e6f8cee72b0000228f
:10081800390008a801f01afb00282ed0079b5a1ca3
:1008280007921b7808aa0ba9300003f0d6f8bce79a
:100838002b000022f02108a801f008fb00281cd09a
:10084800079b099a01330793089b13430cd11d4f4b
:10085800380002f0c9ff390002000b9b00930d9b82
:10086800300001f09dffa0e77823dbe7039b390008
:100878001a1908a82b0002f00bf8079b01330793fd
:1008880094e7802ff9d1079b013307932b681a1d32
:100898001b682a6008aa137001230ba9300003f013
:1008a8009ef882e7802fe8d10122079b0133079346
:1008b8000b9b049300930d9b0349d1e703946ee6c9
:0c08c80000220020bc390000c2390000f2
:020000040000fa
:1008d400f0b5de4600b584b0002002f0a5f802f0c1
:1008e4000dff02f023ff642002f0a2ff02f0b4ff28
:1008f400924a9349002003f011f8924b00221a60a7
:100904008023db00904a9149002001f0dbf903f0d9
:100914004ff8060002f05efe02f08cfe02f0c2fa0e
:1009240000228b4b00f0a2fb04000d00300002f00b
:1009340081fe02f0b7fa02000b000020844901f0a6
:1009440025fa02000b002000290000f08ffc0200b1
:100954000b0000207e4901f019fa02f033f802f08e
:1009640005fe040002f066fe7a4a7b4901f0c6fceb
:1009740002f0dcff794802f03dfe794d2900794808
:1009840002f038fe784802f035fe8021890077486d
:1009940002f030fe764a774b774802f02bfe2900ae
:1009a400764802f027fefa21c900754802f022febb
:1009b400744a754b754802f01dfe0121744802f01b
:1009c40019fe2100734802f015fe734802f012fe6e
:1009d40002f0c4fefa218900704802f0b5fda7e0d8
:1009e4003368591c3160bb692a6894466344180013
:1009f4002b6001f09bfb6a4b18606a4b3a6a5343c5
:100a04001b14fb61684a936100233b62bb61fa21ba
:100a14008900624802f098fd644b1b78002b05d1d5
:100a2400200002f08ffe0028f6d0d9e75f4b0022a9
:100a34001a70444b1b68002bf2d05d4b1a605b4a62
:100a440040491378002bfcd00b68002bf9d100200f
:100a540002f06cfb574f98239b468025ad02fd5056
:100a6400554e3c4a3100384800f0f4fe94243d5180
:100a74005b46fd50374a5149514800f0ebfe3d5169
:100a8400504802f0fffc304d00242f884e4b1f804d
:100a9400380002f0cffd4d4901f039fa4c4901f01c
:100aa400e3fb4c4b186008ce029302f0fbf9009074
:100ab40001913a002100484802f09cfd072002f011
:100ac40077fa0134023580239b009c42ddd13c4ef1
:100ad4003a4d37883c4b1f80380002f0abfd3b4950
:100ae40001f015fa3a4901f0bffb3a4b186008cd02
:100af400029302f0d7f9009001913a0021003648a0
:100b040002f078fd072002f053fa02360134802304
:100b1400db009c42ddd10b4b00221a60244b0132d6
:100b24001a608023db00084a0849002001f0caf853
:100b34001a4c2a4e074f2a4d72e7c046f021002076
:100b4400a9240000e8210020081800201a400042cf
:100b54000000f03f1821002000401c46580e000001
:100b640010270000940e0000d40e0000000f0000b7
:100b7400f168e388b5f8843f1c0f0000380f0000cb
:100b8400540f0000d7a3703d0ad7ef3f700f000049
:100b94008c0f0000a80f0000c40f0000c821002023
:100ba400e0210020666601003c2100200e22002086
:100bb400fc22002000440041000000200008002026
:100bc400081c0020041000000c2200203333d33f03
:100bd40000f07f45ec21002030100000f4210020bb
:040be400e4210020e8
:020000040000fa
:100be8005c2100204c0000000000000008200020cc
:100bf800800000000000000008140020000400002d
:100c080000000000d8200020400000000000000084
:100c1800a82100200c00000000000000c0210020d6
:100c2800080000000000000008180020000800006c
:100c3800000000000c22002002000000000000005c
:100c4800e02100200c000000000000000e2200201f
:100c580001000000000000003c21002020000000ee
:100c680000000000182100202400000000000000ff
:100c7800ec2100200400000000000000c821002032
:100c88000800000000000000f0210020040000001f
:100c9800000000000000002000100000000000001c
:100ca800f42100200400000000000000fc220020c5
:100cb800040000000100000001000000f8210020ed
:100cc8000400000000000000d021002008000000ff
:100cd80000000000fc2100200800000000000000c7
:100ce8008820002050000000000000001022002092
:100cf8006c000000010000001c22002018220020c7
:100d08001c22002000000000250000000810002020
:100d180000040000000000000000000000000000c7
:100d280000000000000000000000000000000000bb
:100d380000000000eb390000000000000000000087
:100d48000000000000000000012900000000000071
:100d5800000000000000000000000000000000008b
:100d6800000000000010002008040000000000003f
:100d7800dc2200202000000001000000010000002b
:100d88000300000000000000000000000000000058
:100d98000000000000000000d8210020d821002019
:100da80008000000000000000422002004000000e9
:100db800000000007c22002060000000010000000c
:100dc8000100000003000000000000000000000017
:100dd800000000000000000000000000412b00009f
:100de800000000000000000000000000a939000019
:100df800372d000000000000000000000000000087
:100e080000000000000000000000000000000000da
:100e180000000000000000000000000000000000ca
:100e28000023002004000000010000000100000071
:100e3800082200200400000000000000b421002067
:100e48000c0000000000000000000000000000008e
:020000040000fa
:100e58000a0d2d2d2d2d2d2d2d2d2d2d2d2d2d2dfd
:100e68002d2d2d2d2d2d2d2d2d2d2d2d2d2d2d2daa
:100e78002d2d2d2d2d2d2d2d2d2d2d2d2d2d2d2d9a
:100e88002d2d2d2d2d2d2d2d2d2d2d000a0d2044f0
:100e980065736372697074696f6e2020202020204a
:100ea80020202041444320444d4120256420507592
:100eb8006c736520446574656374696f6e202020c7
:100ec8002020202020202020202020000a0d204241
:100ed80075696c642054696d653a202020202020b3
:100ee8002020204a616e20333020323032352031c4
:100ef800333a31313a3239000a0d20424c4f434bd4
:100f08005f53495a453a20202020202020202025c0
:100f1800640000000a0d20424c4f434b2054494db9
:100f2800453a20202020202020202025660000008f
:100f38000a0d204652455155454e43593a20202026
:100f48002020202020202025640000000a0d2047b2
:100f58004f4552545a454c5f5448524553484f4c9c
:100f6800443a2025640000000a0d2044414d5049b0
:100f78004e475f464143544f523a202020202025b7
:100f8800660000000a0d2057494e444f575f5349e9
:100f98005a453a20202020202020202564000000e7
:100fa8000a0d2053414d504c45524154453a20209a
:100fb8002020202020202025640000000a0d2d2d4f
:100fc8002d2d2d2d2d2d2d2d2d2d2d2d2d2d2d2d49
:100fd8002d2d2d2d2d2d2d2d2d2d2d2d2d2d2d2d39
:100fe8002d2d2d2d2d2d2d2d2d2d2d2d2d2d2d2d29
:100ff8002d2d2d2d2d2d2d0a0d0000000d0a5472ba
:10100800616e7366657272656420582072657375c7
:101018006c747320746f20617272617920696e201c
:101028005352414d0d00000041444320436f756efb
:1010380074205b25645d203d20253034642c2041dc
:10104800444320496e70757420566f6c74616765ef
:10105800203d202566205620476f6572747a656c9e
:08106800203d2025640a000070
:020000040000fa
:10107000f0b40125ed070f005f405ad48b4200d138
:10108000824205d950404240504059404b4059405f
:101090004e18760ddf187f0d3bd0741c640529d0e7
:1010a000f41b352c26d80e0ddb022b43db0ac902bc
:1010b0002943c9121700202c1ed2e741e2405740b5
:1010c000e3415a40a340e3405a400024801859416c
:1010d0000ad3b21c520521d0c207012f624117006a
:1010e0004008cb0718434908013636054208af418e
:1010f00060417141f0bc7047203c06d01f00e741c1
:10110000e3405f400024012a6741c0186141ebd3ee
:10111000dfe7002eeed129400020ebe70136310554
:101120000020e7e7e742e5d10020c143090dc904eb
:10113000e0e76b400e00871a9e4104d26e40c01b50
:10114000b141d21973414e18df18ac0ae642e9d218
:10115000760d7f0d31d0f41b362ccbd8b4460e0d56
:10116000db022b43db0ac9022943c90a012c32d80e
:1011700004d1d4075208df073a435b08ef0a644200
:10118000904199411ed0002239424dd1241940414d
:1011900049410124394204d10134001849413942fe
:1011a000fad06246a24204d9361b013e360589199f
:1011b000a0e7f10ac90700209ce736429ad1002037
:1011c000002197e70200224394d0b842ded201000a
:1011d00020002024e3d1202c13dd203ce241170025
:1011e000a240e2405740e3415a40a340e3405a4006
:1011f000012fbf410137174300227c4298419141a2
:101200000ce01700e741e2405740e3415a40a34059
:10121000e3405a407c429041994100220f0303d29f
:10122000013e241940414941013e36054708ac4181
:0812300050417141f0bc704710
:020000040000fa
:1012380008d1002806d1f54204d801d3002a01d1eb
:101248006d0d09d10020c143090dc904f0bdf9d1c4
:101258001242f7d1640df5d00020c1434905490871
:10126800a6e000206146f0bdf0b50127ff070e009b
:101278005e403e40b446be0a4c18dd18f442d7d250
:10128800f542e4d2640decd06d0dead06419c902c0
:101298003943460dc0023143db023b43db0a10b43d
:1012a8008e4685b297b26f43140c6c433e0ca4195a
:1012b800260c2404bfb227439cb26c43a419190c12
:1012c8006943250ca4b249190d04090c6419000cd2
:1012d80095b245433e0c76193743bfb2360c150c10
:1012e8004543ad19a6b2240cad192e0437432e0c74
:1012f80036199db24543ad19acb22e0c89191d0c97
:1013080045436d182e04290c3443704680b295b2bb
:1013180045433e0c76193743bfb2360c150c45438e
:10132800ad19a6b2ad19240c2e0437432e0c36196c
:101338009db24543ad19acb22e0c89191d0c45431d
:101348006d182e043443290c75462d0c90b2684351
:101358003e0c80190604bfb23e43070ca0b23f18ea
:10136800120c6a43d019020c80b2240ca4189ab249
:101378006a43121914042043120c89181b0c6b437e
:10138800c91810bc01273d05294203d1b6194041af
:101398004941013cff077d0d013d641b0bdb6d00de
:1013a800ac4209da240500254208be416841614182
:0a13b80066463143f0bd54e74ee7ee
:020000040000fa
:0213c200fee744
:020000040000fa
:1013c400ff2270b50100051c43001206934200d1b0
:1013d40078e0484a934200d989e0002831db464945
:1013e40000f09af8444900f097f8444900f03cffb3
:1013f40001f03efe040002f081f801232340013b8a
:10140400de078023fc211b069c468905664402f006
:1014140095fa3b49041c00f07afd291c00f07cf885
:101424003849051c201c00f072fd011c281c00f02a
:1014340073f8354a4300041c5b08934247d8704054
:1014440070bd2d4802f07afa2b4900f065f82b495b
:1014540000f00aff01f00cfe060002f04ff88023b2
:1014640001241b06fc219c463440013c8905e40709
:10147400644402f063fa2249061c00f048fd291c6a
:1014840002f05cfa1f49051c301c00f040fd011cf1
:10149400281c00f041f81c4a4300051c5b089342d9
:1014a4000ed9011c00f033fd0522011c174801f080
:1014b400e9fa011c281c00f02afd291c00f02cf874
:1014c4006040bde72122124b12481a60b8e7011ca4
:1014d40000f01dfd0522011c0c4801f0d3fa011c8b
:1014e400201c00f014fd211c00f016f8a7e70948a1
:1014f400a6e7c046fffffffedb0fc93fdb0f4940f5
:10150400001049c07a771537fee6db2e98380000c4
:08151400002200200000c07f4e
:020000040000fa
:10151c000122d20703004b403dd430b4431a01d210
:10152c00c01ac9184b004400240eff2c29d0002ce3
:10153c0024d01b0e20d0e31a182b1ddc09021143fa
:10154c00c40d000210435d4219350a00aa40d209ad
:10155c00d940451801d36d080234013ce405280a32
:10156c000121c9072d062a438a4160414100090e19
:10157c00ff2901d3c00dc00530bc7047c00fc00798
:10158c00fae742001823da41ff2af5d07f20000148
:10159c000c300005f0e7a4465140431a02d25340e8
:1015ac00c01ac9184b00090211431b0e4400240e2b
:1015bc00ff2c41d0002b10d05b421b19012b10d3f8
:1015cc0022d1c30d4002401a10d3db050100400aa2
:1015dc00c90591415841644670472442fbd1002013
:1015ec00f9e7c30d40024900401af4d00021013143
:1015fc004000fcd38c4204d95b1adb05400ac018ae
:10160c00e9e7180ac007e6e7192be4d801330c0008
:10161c00d940dc414c40012c4941c30d0002104320
:10162c00441a01d4a4006408013bdb05200a2406fb
:10163c009441584164467047ff2b01d04102cad0f7
:0a164c007f2000010c300005c5e707
:020000040000fa
:02165600fee7ad
:020000040000fa
:10165800f0b5de4657464e464546e0b583b080466f
:1016680000296ed00024384f0726384b9c469b46ed
:101678009946009108e03648415549468a60621cff
:101688000134009991424cd97a683240012a16d027
:101698009d68da6892466a1c19698a4289410a403b
:1016a80092453fd04146095d786830400128e2d133
:1016b8006d0027484155013500214155dde7624657
:1016c8009568d26892466a1c614609698a428941ce
:1016d8000a40924526d0610001204044405c000247
:1016e80082464046415c504601430191786830404b
:1016f800012809d0694609798a461549504648554e
:1017080059468a60621cbbe7690068460079104d3b
:10171800aa4668540d0001350199090a50464155f9
:10172800eee7140001f0a2ff002802d0064b0122c8
:101738009a75200003b03cbc90469946a246ab4639
:10174800f0bd0c00eee7c04600140042d82000208f
:041758000814002051
:020000040000fa
:10175c004200f8b5130e013b051c0100fd2b54d8bb
:10176c0000283adb3049fff7d3fe304900f078fd12
:10177c0001f07afc070001f0bdfe802301241b065a
:10178c009c463c40013c2a49e407061c644400f09a
:10179c00bafb291cfff7bcfe051c2649301c00f0c7
:1017ac00b2fb011c281cfff7b3fe234a4300051ca7
:1017bc005b08934201d86040f8bd011c00f0a3fb0c
:1017cc000522011c1d4801f059f9011c281c00f0d0
:1017dc009afb291cfff79cfeede7134802f0aaf8d0
:1017ec00124900f03dfd01f03ffc040001f082fec7
:1017fc00061c012020400138c4070d49301c00f0a4
:10180c0082fb291c02f096f8c6e7ff231b069a42be
:10181c0004d00b4b9a42cfd90a48cde721220a4b70
:10182c0008481a60c8e7c046db0fc93fdb0f4940c8
:10183c00001049c07a771537fee6db2e9838000089
:0c184c00fffffffe0000c07f0022002014
:020000040000fa
:10185800f0b5de4657464e46c0b582b016008a46f9
:101868008023db009b468344050014e06410091bb9
:101878000914002001f07cff53461860304b1b68a8
:10188800012b46d001332e4a1360023504239c46af
:10189800e2445d454dd02c88a408336aa34200da9f
:1018a800346237693368d917fb173a00306801f09a
:1018b8003bfb244a002301f037fba403611873693a
:1018c800c91af1603b12ff1a77610c120c1b3461c4
:1018d800fb177268d1173a000193706801f024fb76
:1018e8000904000c0843241ae217a4185440b268eb
:1018f800d1173a00019bb06801f016fb0904000cef
:101908000843c317c018584021188442aedd0400ac
:10191800ace70b4b00221a60f3698342b5da002367
:10192800f36033617361b3690133b36101f0fcffa4
:10193800abe702b01cbc91469a46a346f0bdc04630
:08194800f8210020b8fe0000a8
:020000040000fa
:10195000f0b5d6464f464646c0b50426344da84697
:10196000a946334b9a465be04a46126a002a42d0a7
:10197000796a3b6a01209847bb6a01333a6b93420c
:101980009241134037e05246926a5200e0b2294930
:1019900088540132240a8c543ce001f079fe244b37
:1019a0001b6a002bddd0224b596a3c23204ad35cb2
:1019b000002b06d0936b9842d3d3136a002098472c
:1019c000cfe71b4b9b6b9842cbd1194b1b6a002076
:1019d0009847c6e7184b1b7e334223d0164b1c8d0d
:1019e000a4b2ab6a01332a6b934292411340424640
:1019f000d26a9a42b8d00e4ad26a9a42ead00e4ac5
:101a0000516807220a40012abdd0094a926ae4b20d
:101a100008498c54064a93623423d35c002bbcd112
:101a2000034fd7e71cbc90469946a246f0bdc0467e
:0c1a3000d82000200820002000140042f4
:020000040000fa
:101a3c00f0b5060085b00f0015001c008b4265d870
:101a4c0001d1824262d82100280001f0bffe39008a
:101a5c000090300001f0bafe009b21001b1a1a0006
:101a6c002800039301f0a6fe00900191019bbb425c
:101a7c0046d802d1009bb34242d8009b019c039aea
:101a8c0001200021f61aa74101f094fe039b002bc4
:101a9c002fd0019b009adb0754081c43019b5d0867
:101aac00039b9c46bd422ed801d1b4422bd83200a8
:101abc003b00121bab41012692185b410027b61864
:101acc005f4101235b429c446346002bead18019a1
:101adc007941039a04000d003000390001f05efedc
:101aec00039a06000f0001f065fe241a8d412000b8
:101afc0029000a9b002b01d01e605f6005b0f0bd71
:101b0c0000200021c2e7b6197f41dae7002000214e
:021b1c00efe7f1
:020000040000fa
:021b1e00fee7e0
:020000040000fa
:101b2000f0b5ce46474680b583b00125314ca0467e
:101b3000314a304eff23994616e058002f4f3f5c44
:101b4000bc466f466146b97101302c49085cf8719a
:101b500001331ae06b4606331b8849460b40138558
:101b6000244b1b7d002b20d1137e2b423dd0a0683f
:101b7000e368984236d05768072038400128dcd007
:101b80001e48c75c684687710133306983428041d3
:101b900003401848c360506807230340012bd9d184
:101ba0006b4606331b881385dae701f04dfe114bb7
:101bb0001b68002bbcd0434659681b7f002b08d004
:101bc0000c4b9b699842b3d30a4b1b680320984780
:101bd000aee7084b9b699842aad1064b1b680320cd
:101be0009847a5e7044b01221a7503b00cbc904638
:101bf0009946f0bdd82000200014004208140020af
:020000040000fa
:101c0000244b00229a619a8c80218a439a841a007c
:101c10001023d1680b42fcd01f4b1b689b0e3f2b3f
:101c200035d09b028022920013431a4a93621023fc
:101c3000d1680b42fcd0174b02229a841a00102361
:101c4000d1680b42fcd0154b154a5a60154a9a6070
:101c50001a0053785bb2002bfbdb104b124a5a6020
:101c60001a0053785bb2002bfbdb0c4b0f4a5a80f7
:101c70000f4a5a800f4a5a800f4a5a800f4a5a8098
:101c80000f4b104a1a62034b00221a627047203b26
:101c9000c7e7c0460008004024608000000c0040f8
:101ca00001030100012000000007010004410000c1
:101cb00007400000174000001b4000001e400000cd
:081cc0000004004022080100ad
:020000040000fa
:101cc800f0b505012d4c6419267bf6b22c4d3f2743
:101cd800ec5de4b2e8550f37ed5dad0702d10025a4
:101ce800002e3bd1264e4e25032777550501234e5e
:101cf8007619023f3773234ead5b6d0533d5c9188e
:101d08000601204dad19696001011e4d495b0905a9
:101d18002ed5d21805011b4949198a6019490501b0
:101d28006a5a9205920fd3409bb249194b80144ac4
:101d38004021535c02252b435354516c536c9b0434
:101d48009b0e08220a4013430125002b06d10c4a9a
:101d58001169012383400b4313610125084a3f237e
:101d6800d4542800f0bd0601064dad196960cbe7d3
:101d78000501044949198a60d0e7c0468821002036
:081d8800004800417821002011
:020000040000fa
:101d9000f0b40125ed070c005c402c40a446ae0acf
:101da0004c18df18f4423dd2f74245d2640d4cd0b6
:101db0007f0d3cd0e41bc9022943cf0adb022b4331
:101dc000db0a0600b61a9f4104d2013cb6197f41d6
:101dd000b6185f416812800d241838dd001884425f
:101de00025d8e80c0021b6197f41b61a9f4103d3cc
:101df00040414941f7d304e0b6185f41001849411a
:101e0000f1d32405b6197f41b61a9f4105d3374354
:101e1000c20717430022012f50416141624611431e
:101e2000f0bc70470cd100280ad1f74208d200203c
:101e3000c143490d0905f1e7002a01d1f74206d057
:101e40000020c143090dc904eae77f0df8d0002046
:041e50006146e5e71b
:020000040000fa
:101e540010b588293cd015dc81294dd003dc8029bc
:101e64004ad0002010bd822911d08429f9d11968e3
:101e7400002a26d00a1d1a6000228b5e0360db173d
:101e8400436011e0a02930d010dc9029e9d1196811
:101e94000724002a2ed00919a1430a0008321a6027
:101ea4000b684c68036044600120dbe7c02901d063
:101eb400f029d6d11a68111d196013680360002334
:101ec400dee70c1d1c600b689bb203604260ebe70d
:101ed4001968002a04d00a1d1a600023cb56cde7e6
:101ee4000c1d1c600b68dbb2efe71a68111d19604a
:101ef4001368c3e70731cfe71968002a03d00a1d26
:0e1f04001a600b68bae70c1d1c600b68dde765
:020000040000fa
:101f120030b405004d400124e407254042004b0047
:101f2200120e32d01b0e3cd0ff2a33d0ff2b3fd0f3
:101f3200d21800022043000a09022143090ac4b24e
:101f42004c43000ac3b24b43000a4843210a5b18c0
:101f5200190a091801d44900013a080a7f3a2adb12
:101f6200fe2a0fd2d2051c43240601d001242143ac
:101f7200c9b280295041802901d14008400028433c
:101f820030bc7047ff20c005f9e71b0eff2b0ad0bb
:101f92002800f5e7400206d1ff2bf3d1490202d116
:101fa200f0e7ff2af4d17f2000010c300005e7e7bb
:101fb2004902f8d1e6e743020132e9d15b1202336a
:061fc200e6d9d805e4e7b2
:020000040000fa
:101fc8004b005b0d264af0b55c1e944238d8254a72
:101fd8009e1825d4332e22dc234a9b1827d4234a63
:101fe800da400700214b9743f3403c000f000240c2
:101ff8009f4319403d000a430fd0002f0dda2023dc
:102008005b42f11824d480204003c840020080219c
:102018004903f1400b00a4185d4120002900f0bde0
:102028000020002901db0021f9e71149f7e7202208
:102038000e4b921b934001225242f2401a43d0e7c2
:10204800002becd10022c90fcb0710001900e6e7de
:1020580020218020891b400388400200d7e7c04622
:10206800fd07000001fcffffe1fbffffffff0f0082
:042078000000f0bfb5
:020000040000fa
:10207c00f0b54b6889b005930b6807009c46079335
:10208c00cb680c008e68049310685168cd0f44d057
:10209c000b000200002150429941059b002b08dbec
:1020ac000222634693430793002d02d1079b5a07e4
:1020bc002ad5731e07aa02920a22009301920b00e2
:1020cc000200200000f0a7fb002d02d1079b5a074d
:1020dc001ed501382d23002d00d1023b049a135438
:1020ec0023695a1e049b121a1918079b3800009377
:1020fc00330000f053fb7b68db0503d56368984223
:10210c0000da180009b0f0bd1b07db0ff31ad1e79a
:10211c001b07e5d501382023e0e7059b002bbfda30
:02212c00c4e706
:020000040000fa
:02212e007047f8
:020000040000fa
:10213000002941d010b4041c4c40a44601230022c5
:10214000002900d54942002800d5404288422cd3be
:1021500001242407a14204d2814202d209011b01b9
:10216000f8e7e400a14204d2814202d249005b00b8
:10217000f8e7884201d3401a1a434c08a04202d320
:10218000001b5c0822438c08a04202d3001b9c0861
:102190002243cc08a04202d3001bdc0822430028c3
:1021a00003d01b0901d00909e3e7101c6446002c89
:1021b00000d5404210bc704701b5002001f018fc6a
:1021c00002bdc0460029f7d003b5fff7b3ff0ebc30
:0821d0004243891a1847c0467a
:020000040000fa
:1021d800f0b5d6464f464646c0b582461e4ad36a33
:1021e800956a002933d0ab4234d0040001201b4a41
:1021f80094469046184e12e04246d25c91465246aa
:10220800013a4f4617540133326b934292411340bf
:10221800884214d2421c0234ab4211d01000104a3a
:10222800576807223a40012ae6d15a006746bf5c40
:10223800277001326746ba5c62700133e4e71d001b
:10224800054bdd621cbc90469946a246f0bd1d00b8
:102258000800f5e70020f3e7d82000200820002038
:04226800001400421c
:020000040000fa
:10226c0030b405004d400124e407254042004b00ea
:10227c00120e26d01b0e34d0ff2a2dd0ff2b35d0ba
:10228c00d21a000220430902214343084908a00d39
:10229c005b1a02d2013a5b005b185b008b4200d3e5
:1022ac005b1a4041f9d37f3222ddff2a06d2d205d8
:1022bc00c91a8b425041284330bc7047ff20c005df
:1022cc00f9e71b0e03d0ff2b12d1490210d07f204f
:1022dc0000010c300005efe74002f8d1ff2bedd1e7
:1022ec00f5e7ff2aead14002f1d1e7e74902eed146
:0422fc002800e1e7ee
:020000040000fa
:10230000f8b5051c1400081c00f0cefd1e4a1f4b3a
:10231000fef7aeff06000f00281c00f0c5fd02000e
:102320000b0030003900fff733fd00f04dfb061cb9
:10233000fff748f8051c301cfff710fa061c8f2128
:10234000c905281cfff7e5fd00f094fe60608f21b1
:10235000c905301cfff7ddfd00f08cfea060291cd4
:10236000281cfff7dbf88f21c905fff7d2fd00f02d
:1023700081fe20600023e36023616361a361fa2290
:10238000d200e2612362f8bd182d4454fb211940ac
:020000040000fa
:102390001e4b1f4a1a601f4a9a81c02292025a603d
:1023a0001a00d369002bfcd1184a136802210b4391
:1023b0001360d369002bfcd1174b00221a629a627a
:1023c000da6234215a5408315a549a630021da8768
:1023d0001a609a60da60197519779a610b4b5a681e
:1023e00007231340012b0ad00b4b80221a63d20023
:1023f0001a61064b80229a757c3a9a757047064b93
:1024000040221a63d2001a61f3e7c046001400426a
:0c241000040110402bf6ffffd820002034
:020000040000fa
:10241c00002934d00123002210b488422cd301248b
:10242c002407a14204d2814202d209011b01f8e720
:10243c00e400a14204d2814202d249005b00f8e7d9
:10244c00884201d3401a1a434c08a04202d3001b05
:10245c005c0822438c08a04202d3001b9c08224338
:10246c00cc08a04202d3001bdc082243002803d076
:10247c001b0901d00909e3e7101c10bc704701b51a
:10248c00002001f0affa02bd0029f8d003b5fff728
:0c249c00c1ff0ebc4243891a1847c0461d
:020000040000fa
:1024a80010b5012802d002282ed010bd174b0122ea
:1024b8001a70174b1b68002b12d1154b1a60154a5e
:1024c800982380214902d150134b1b68012becd172
:1024d8007f33db00114a12490020fff7f1fbe4e7e4
:1024e8000b4b00221a600b4a942380214902d150d9
:1024f800094b1b68012bd8d17f33db00094a0849f7
:102508000020fff7ddfbd0e7fee7c0460e220020e3
:10251800e821002000440041fc220020081c002083
:082528001a40004208180020cf
:020000040000fa
:10253000f0b51600050002278369426987b002934f
:10254000d31a03939b1904910596019302ac3a00a8
:102550002100286800f0c0ff019b984208d1ab68b9
:10256000ea68ab619a18aa626b61300007b0f0bdef
:1025700000280cda102200236968ab620a43ab61c1
:102580006b616a60022f12d06368f61aede7019b57
:102590001b1a01936368984202d9c01a0834013f9c
:1025a00023681b1823606368181a6060cfe71e0059
:0225b000dbe767
:020000040000fa
:0225b200704770
:020000040000fa
:1025b4001e4bf0b51c68231e0dd00022210015000f
:1025c40013000f68bc460f6984450bd1002a06d05e
:1025d40017610b0010331800f0bd3900f1e7134bfd
:1025e4001f60f6e7844504d9002b1ad01e68b44551
:1025f40017d30a00002ff0d1002becd01f001a686b
:102604001969121a1037102a05d91860381801618f
:102614000100103a02609c4206d1044b19603b0051
:10262400d9e715000b00e4e72961f8e70822002048
:020000040000fa
:102634001b4b01221a701a00537e5bb2002bfbdb8a
:10264400184b1a68184b1b68db0e0721114049010f
:102654000b435201e021c9000a401343104a138579
:102664000323d370013b5370c0235b011361537e7a
:102674005bb2002bfbdb0a4bc02292009a801a004b
:10268400537e5bb2002bfbdb054b0f221a760e3a0e
:102694001a751a00537e5bb2002bfbdb7047c046f1
:0c26a400004000422460800020608000a4
:020000040000fa
:1026b00010b582b0002301931a4a118c0f330b40de
:1026c0003f21545ce4b253540f31525cd2b20192b8
:1026d000019a0220920708d512494e228854190106
:1026e000114a5218002111730138019ad20709d5f5
:1026f0000c494e220120885419010b4a521800211e
:10270000117301301901084a52185268002a04d086
:10271000054a531899685b689847024a3f23d45486
:0c27200002b010bd0048004188210020dc
:020000040000fa
:10272c00f8b5846a05000f001600002c0ad0ab6abd
:10273c006a699b1ab3420cd2320039002800fff7a9
:10274c00f1fe05e000f0c8ff03002000002beed0e6
:10275c00f8bd002ef0d02b0034331b785bb2002b6d
:10276c001adb3400dbb2621eb95c994212d1220032
:10277c0039002800fff7d6fea042e9d33f19341bdd
:10278c0022003900686901f077f86b6930001c1978
:0c279c006c61dde7141ee6d13400f1e7ab
:020000040000fa
:1027a800f0b51d00012389b014000e9a06001a40e6
:1027b8000391029201d1a5420ad822000399300060
:1027c80000f0d0fca54203d82500280009b0f0bdd0
:1027d8002f1b01973a00102f00d91022202104a89e
:1027e80001f074f8019b0f2b0ed80f2204a93a4070
:1027f800300000f0b7fc029b002be6d122000399c1
:10280800300000f0affce0e7102204a9300000f02f
:0a281800a9fc019b103b0193e4e7cb
:020000040000fa
:10282200f7b5040019000a9fe368666800933b68e5
:10283200100001932369013b1c00002e00da0126df
:102842000022009dea5435000123002c03dc002bfa
:102852001cd02000febd02000a4309d1002d07dc76
:10286200089a921b5219002af1dd019a9207eed5bd
:10287200099b099adb1700f0dcfb8c460099013cae
:10288200130030320a55013d6146dee710233a68f3
:062892009a433a60dde705
:020000040000fa
:1028980010b584291fd007dc812915d0822922d0c0
:1028a800802911d0002010bd90291cd008dc88296f
:1028b800f8d119680c1d1c600b6803601a7010e0d1
:1028c800a02901d0c029edd119680c1d1c600b6826
:1028d80003601a6005e019680c1d1c600b68036032
:1028e8001a800120dfe719680c1d1c600b68036063
:0828f8001a60d2175a60f4e7e0
:020000040000fa
:102900007fb51600c2680d0013000091591e8b415f
:10291000f31a019383680400039269460222006857
:10292000029300f0c5fd002808dc182208230240ad
:102930005340626813436360060010e0019b8342ca
:10294000fad2a268c01ae3681018e2632064002b70
:1029500005d0531ce3631378ad19013d2b70300093
:0429600004b070bd92
:020000040000fa
:1029640037b5164d04002b68002b0fd000f052fe33
:10297400019001a800f051ff0f230f3098430199f3
:1029840000f0a0fe00280cd000232b60002c00d106
:1029940001340f230f349c4304d10c222000084b34
:1029a4001a603ebd042c00d204242000fff700fe70
:1029b4000028f6d0031f1c60f3e7c0460023002064
:0429c40000220020cd
:020000040000fa
:1029c8004b1801225205da4217d25b0d0722d201b9
:1029d8009b1a0fd9ff2b13d2db05ca0fd20713435b
:1029e8000903020d1143490ac200524100d90131bd
:1029f800c8187047c80fc007704706d1002804d10f
:102a0800c80f0002ff30c00570470123db070a002a
:102a1800c900400f084398431a4010435b0a184303
:022a28007047f5
:020000040000fa
:022a2a007047f3
:020000040000fa
:102a2c0010b5134b06225a60124b1b681868002114
:102a3c0000f05eff104b1b681868002100f058ff77
:102a4c0000f074f9fff7d6f8fff79cfc00f09aff42
:102a5c0000f05cfe00f062fd00f09af8fff7e4fd78
:102a6c0000f082fa00f0d2f900f0e8f810bdc04690
:0c2a7c000040004114220020f82200203d
:020000040000fa
:102a880070b5941ea40004190d1c281c616816005a
:102a9800fff73bfa2168fef73dfd291cfff735fae1
:102aa800231f1968fef736fd032e11d0291cfff7e6
:102ab8002cfa2300083b1968fef72cfd042e07d0da
:102ac800011c0c3c281cfff720fa2168fef722fda8
:0c2ad800011c281cfff719fa70bdc04655
:020000040000fa
:102ae40000230e4a10b513600d4a13600d4a13609b
:102af4000d4a13600d4a13600d4a5362136101338a
:102b0400936000f02bfffff752fd0a4c0a4b9c42e6
:102b140000d310bd08cc9847f8e7c0460422002033
:102b24009420002090200020882000208c20002069
:0c2b340098200020bc000000c000000041
:020000040000fa
:102b400070b504000d00002801d1002070bd43685d
:102b50009b0607d543698269934215d80023a36277
:102b6000a3616361e16b236c994204d2c91a01220b
:102b7000206800f03fff00232364e3639d42e4d01c
:102b8000206800f027ffe1e70022c36a11009847a0
:0c2b90006369002be2d101204042d7e72e
:020000040000fa
:102b9c0010b50d4a002111705160916011730b48f2
:102bac000b4b58630b4c9c630b4c5c613f241955cd
:102bbc000a4959640a490180012111704d220231e0
:102bcc009954084a1a8010bd8821002078210020d1
:102bdc0000480041982100208181818100278000dc
:082bec0009090000020f0000be
:020000040000fa
:102bf40010b5134b9b7d002b1ad0114a137edbb208
:102c0400927d52b2002a14db0d4a137edbb2927d10
:102c1400d20703d5db0701d5fef780ff084a137ef0
:102c2400dbb2927d520703d55b0701d5fef78efe1a
:102c340010bd5bb2002be7da00f0a2f8e4e7c0466f
:042c44000014004236
:020000040000fa
:102c480030b5bff35f8f62b60f4bc12080001a58b2
:102c58000e4c2240c02109040a431a5040221a602f
:102c680008301a58ff25aa433f3d2a431a508022ac
:102c780052011a6004301a58224011431950802218
:102c8800d2021a6030bdc04600e100e0ffff00ff3d
:020000040000fa
:102c980070b5040016001d00022a1cd043689b066c
:102ca80019d4002908d1002d01d18025ed00280074
:102cb8000830fff753fe010020236268a160134328
:102cc80063602300e5603433ff22012e00d10a221d
:102cd8001a70024be362002070bdc0462d27000029
:020000040000fa
:102ce80037b56b46dd1d836a04002970002b0cd0b4
:102cf8006369a26a93420fd3e36a01222900200084
:102d08009847012805d1287805e000f0e7fc00285d
:102d1800eed0012040423ebd22003432127828789d
:0e2d280052b29042e8d05a1c62611870f3e774
:020000040000fa
:022d36007047e4
:020000040000fa
:102d3800104b012242215a5414315a5401315a5429
:102d480026395a543a320f39995445320a4999501a
:102d58000022d0215a5401315a5405315a540131b4
:102d68005a5407315a5426395a5403315a540431a3
:0c2d78005a547047004400410000c34062
:020000040000fa
:102d840010b5104b5b8b0722134000d110bd0e4ac7
:102d9400d3870c4b80221a76793a5a831b7e5b07c1
:102da40005d5084b04211a8d1a7e0a42fbd1064b25
:102db4001b6a002bead0044b596a1b6a022098470d
:0c2dc400e4e7c04600140042d8200020c4
:020000040000fa
:102dd00010b5064c2378002b07d1054b002b02d0f1
:102de000044800e000bf0123237010bd5c210020d7
:102df0000000000000000000044b10b5002b03d0c1
:102e00000349044800e000bf10bdc04600000000b8
:082e1000602100200000000019
:020000040000fa
:102e18000f4b01221a801a00d37b5bb2002bfbdb1d
:102e28000b4bb02252001a80e022ff321a83a53ad7
:102e3800ff3a9a73074a0021116001225a7312025d
:102e48005a811a00d37b5bb2002bfbdb7047c0466c
:082e5800002c0042c021002003
:020000040000fa
:102e600010b50a4b98470a4b984700f0f5f9094b03
:102e7000ff229343084a9360084b9847084b9847b2
:102e8000084b9847fdf726fdfee7c0462f210000be
:102e90002f2100000000000000ed00e0e52a000006
:082ea0002f2100002f2100008a
:020000040000fa
:102ea80041008c46012212068a420bd809093823b0
:102eb8001b06c918c30fdb07194340076346da42ec
:102ec80004d27047c10fc9070020704703d13823c7
:102ed8001b06c918704738231b06c9180122d204db
:042ee80011437047db
:020000040000fa
:102eec0030b401256d054c00e54215d85c00e54277
:102efc0012d80c001c436400044314430fd005d2b9
:102f0c0082428b418041013030bc704790429941e4
:102f1c008041013030bc7047002030bc704701202c
:042f2c0030bc7047fe
:020000040000fa
:102f3000f7b597b201933b00140c86b2050c7343ae
:102f40006f4366436543f6191c0ca4199c46a742bf
:102f500002d980235b02ed186346260c7519240400
:102f60009eb2019ba4194343200051435b19591899
:042f700003b0f0bdfd
:020000040000fa
:102f74000e4b01221a801a00937a5bb2002bfbdb02
:102f84000a4b80221a801a00937a5bb2002bfbdb77
:102f9400064b802292009a611a00937a5bb2002b4e
:102fa400fbdb024b802252009a80704700140040e1
:020000040000fa
:102fb40070b50d4b5e681b68db0714d50b4b58438b
:102fc400094b9b6800280ed00021074d06e0741cb5
:102fd400a41ae318c9181300884204d9aa689a42ab
:102fe400f5d89b1af6e770bd10e000e080bb000046
:020000040000fa
:102ff400030010b51a78202a0dd0110009390429cc
:1030040009d900212b2a02d02d2a01d10131013303
:1030140000200a2404e00133ece760430133801a02
:103024001a78303a092af8d9002900d1404210bd53
:020000040000fa
:10303400002b11d1002a0fd1002900d1002802d081
:103044000021c943081c07b4024802a14018029099
:1030540003bdc0469909000003b4684601b502984f
:10306400fef7eafc019b9e4602b00cbc7047c046ca
:020000040000fa
:103074004200110e7f390fd40123db0749421f316f
:103084000cdd400003d2c0011843c8407047c001a2
:103094001843c8404042704700207047ff2109068a
:0e30a4008a4200d99843184000d4d8437047a0
:020000040000fa
:1030b20030b401256d054c00e54215d85c00e542af
:1030c20012d80c001c436400044314430cd005d2f4
:1030d20082428b418041404230bc704790429941cc
:0e30e2008041404230bc7047002030bc704737
:020000040000fa
:1030f00030b401256d054c00e54215d85c00e54271
:1031000012d80c001c436400044314430cd005d2b5
:10311000904299418041404230bc704782428b418d
:0e3120008041404230bc7047002030bc7047f8
:020000040000fa
:1031300030b50c4b3f229d5cedb2985440215a5c57
:103140000224a2435a541c000222635c1342fcd1a5
:103150000001054b181800230373024a3f33d5546e
:0c31600030bdc04600480041882100201e
:020000040000fa
:10316c00436870b50400d80512d52569954200d97d
:10317c001500002d0bd02a00606900f07dfb226940
:10318c0063695b19551b0022636125611a7070bd60
:0c319c00db06fcd4200000f08dfbf8e7ff
:020000040000fa
:1031a8000b00496810b50200890603d4190000f025
:1031b80033f810bd190034310978c0b249b28142e0
:1031c80007d059699c6aa14203d24c1c5c610a7001
:0c31d800efe711001800fff783fdeae7a5
:020000040000fa
:1031e4001c2101231b04984201d3000c10391b0a33
:1031f400984201d3000a08391b09984201d30009f7
:10320400043902a2105c40187047c046040302024d
:0c321400010101010000000000000000aa
:020000040000fa
:1032200013b50b006a46d41d5a68c1b22170d2058d
:1032300005d55a69c0b2541c5c61117016bd0122db
:103240002100180000f03cfb002801d02078f5e7b1
:0632500001204042f2e7fc
:020000040000fa
:1032580010b50a480168002903d14368002b00d142
:1032680010bd04008368064a9bb20c349b009b582f
:1032780042682000984780002018ebe7e80b000020
:04328800703800009a
:020000040000fa
:10328c00f0b5050000200a4a4400a65c002e02d1cd
:10329c0012195078f0bd296801300f78c0b2b742ce
:1032ac0003d112190131507829600a28ebd9f1e7c2
:0432bc0008380000ce
:020000040000fa
:1032c000f4464a1805d200f077f801d5c017400837
:1032d000604701235b05d34206d200f06df801d5ab
:1032e0000120c0074042604701d10042f5d0d0170d
:0432f00040087047db
:020000040000fa
:1032f400074b1a68002a01d1064a1a60064a116867
:10330400002901d1054911601a68054b1a607047fc
:10331400bc21002008230020b82100200827002019
:04332400b4210020b0
:020000040000fa
:1033280070b5094d04002b68002b01d1fff7deffb3
:10333800064a286812680419a24201d32c6070bd9d
:1033480001204042fbe7c046b4210020b8210020fc
:020000040000fa
:1033580070b5140016000a004e430d00511e8a4134
:103368005242144001003200180000f0a5fa8642cb
:0e33780003d02900fff74ef80400200070bdbe
:020000040000fa
:1033860070b4012676054c005d00e6420cd8ee428c
:103396000ad825430543154303d0994204d19042e8
:0e33a60002d1012070bc7047002070bc70473f
:020000040000fa
:1033b4004a0010d2520d03231b02ff33d21a0ad43f
:1033c40052421f3209d4400dc90208430123db07ce
:0e33d4001843d040704700207047d017704754
:020000040000fa
:1033e200002380290fdb812901dd83290bd10721ed
:1033f200136807338b431900083111601a685b6840
:0a34020002604360012318007047c8
:020000040000fa
:10340c00020000234832d356591e0b431370042379
:10341c004268134005d010231343436001204042ff
:0a342c0070470364c3631800fae759
:020000040000fa
:1034380010b5074b5868074a12689a6801329a60b3
:103448001b68002b02d0024b1b68984710bdc04672
:08345800a821002010e000e0b3
:020000040000fa
:1034600010b5074b987bc0b23b229a73054b1b6883
:10347000002b03d0034b59681b68984710bdc0460a
:08348000002c0042c0210020d5
:020000040000fa
:1034880010b5084c2368196800f091f8012300284a
:1034980005db23680a20196800f090fac30f584228
:0834a80010bdc046f82200200f
:020000040000fa
:1034b000f7b5002507000c002e000192019b9e42eb
:1034c00001db2800febd62682168380000f062f868
:0834d00001362d180834f1e764
:020000040000fa
:1034d800f7b5002507000c002e000192019b9e42c3
:1034e80001db2800febd62682168380000f0daf8c8
:0834f80001362d180834f1e73c
:020000040000fa
:10350000c20f12029d3201000cd001d5494202d4f3
:10351000013a4900fcd5d205080a0906494100d301
:0635200001295041704733
:020000040000fa
:10352800054a002313609360044951600621116025
:10353800034a93601360704710e000e07fbb00000f
:04354800a821002096
:020000040000fa
:10354c0010b50400064b9b6803604801401a8000cc
:10355c004018c000fa218900fef75aff606010bdc8
:04356c00a821002072
:020000040000fa
:1035700041000dd2090e7f390ad449421f3105d4ca
:1035800000020122d2071043c8407047c817704795
:043590000020704760
:020000040000fa
:1035940010b50c000023002809d10300002a06d02e
:1035a40001212000fef716fe0028f9d0012318009f
:0235b40010bd48
:020000040000fa
:1035b60070b50e00050000f018f933000400020093
:1035c60001212800fff7c5fe001b431e984140421b
:0235d60070bdc6
:020000040000fa
:1035d800054b064a5a801a00d37b5bb2002bfbdbf3
:1035e800014b188b80b27047002c00421880fffff7
:020000040000fa
:1035f8000fb407b5054b04aa1b6802ca18680192e4
:1036080000f0c2f803b008bc04b01847f822002044
:020000040000fa
:1036180010b5054c2368002b01d1fff767fe034b5b
:1036280018682368c01a10bdb4210020b8210020f2
:020000040000fa
:103638009d2201000ad002d4013a4900fcd5d205e6
:0e364800080a0906494100d301295041704784
:020000040000fa
:10365600002310b5934206d103201840421e904124
:0e3666009b08c01810bdc45ccc540133f2e7c1
:020000040000fa
:10367400054b9868db68984201d3c01a7047024a28
:0c36840012691018c01af9e7d8200020c5
:020000040000fa
:10369000054ad36a906a834201d8c01a7047024a29
:0c36a000126b1018c01af9e7d8200020a7
:020000040000fa
:1036ac0070b50d001400012801d0200070bd210060
:0c36bc002800fdf7cbff0028f9d0f6e74e
:020000040000fa
:1036c8000023054a10b514689c4203d110600361b9
:0c36d80001600133180010bd0822002022
:020000040000fa
:1036e40010b50400fff790fe002805d1a368e26836
:0a36f400a36163619b18a36210bd7f
:020000040000fa
:10370000044a137802210b431370537e5bb2002be3
:08371000fbdb704700400042a2
:020000040000fa
:10371800034b1822ff321a81024a5a607047c0468a
:0837280000040042000033021e
:020000040000fa
:10373000044a138802210b431380937a5bb2002b57
:08374000fbdb704700140040a0
:020000040000fa
:10374800044b9b6802689b1a4268002093424041e0
:08375800c0b27047a821002057
:020000040000fa
:10376000044a138802210b431380d37b5bb2002be6
:08377000fbdb7047002c004256
:020000040000fa
:1037780010b5044a800083581c111b1b591881502e
:08378800081110bdd021002042
:020000040000fa
:1037900013b50400019201aafcf7fefe6368db0684
:0837a00001d50120404216bdd5
:020000040000fa
:1037a800d0400b1cd1409c46203ad340184352428b
:0837b80063469340184370477b
:020000040000fa
:1037c0009140031c90409c46203a9340194352423a
:0837d0006346d3401943704722
:020000040000fa
:1037d80010b5002903d1fff701fd203002e0081cd5
:0837e800fff7fcfc10bdc04618
:020000040000fa
:1037f0000378002b06d0030001331a78002afbd18e
:08380000181a70470020fce7d4
:020000040000fa
:1038080068076c094c836a9074a07ac00080688845
:0638180000846c820081b7
:020000040000fa
:10381e00006810b5002801da002010bdfff77dfd0d
:06382e00431cfad1f8e78b
:020000040000fa
:10383400034b98611a00937a5bb2002bfbdb704751
:04384400001400402c
:020000040000fa
:1038480010b5034b1c69fff711ff013c201a10bd8e
:04385800d820002054
:020000040000fa
:10385c00034b00229a601a6801210a431a607047d0
:04386c0010e000e088
:020000040000fa
:103870000f39000057360000db390000db3900004b
:04388000db39000030
:020000040000fa
:1038840010b5002a05d00023cc5cc4540133934204
:04389400fad110bd98
:020000040000fa
:10389800abaa2abe9788083c281050b99329393614
:0438a800d4aad5b217
:020000040000fa
:1038ac0010b500f08df8024b1860586010bdc04682
:0438bc00d8210020ef
:020000040000fa
:1038c000c36a10b5002b01d0984710bd0068fff700
:0438d000edfefae728
:020000040000fa
:1038d400002a06d00300c9b282181970013393423a
:0438e400fbd170475d
:020000040000fa
:1038e80003000a7818001a7001310133002af8d150
:0438f8007047c0460f
:020000040000fa
:1038fc004a424a41802310b55200db00fff7c6f95b
:02390c0010bdec
:020000040000fa
:10390e008a18914201d10020704700230b700131bb
:02391e00f7e7c9
:020000040000fa
:1039200003010248c018416082607047882100206e
:020000040000fa
:10393000024b00221a605a607047c046d021002016
:020000040000fa
:103940000122d2075140014b184700002115000009
:020000040000fa
:10395000494e4600696e66004e414e006e616e0033
:020000040000fa
:1039600010b5fff7a3fffff760f8fff75ef810bd93
:020000040000fa
:1039700010b5fdf77dfc029a039bfdf779fb10bda6
:020000040000fa
:0e3980000300413b192b01d820231843704748
:020000040000fa
:0c399000014b82225a6070470040004149
:020000040000fa
:0c399c0010b50400fff7a2ff200010bdd2
:020000040000fa
:0a39a80010b50068fff77efe10bda9
:020000040000fa
:0839b4000048704700366e0167
:020000040000fa
:0839bc00286e696c290025004a
:020000040000fa
:0839c40010b5fff7effb10bd89
:020000040000fa
:0839cc00004870477c22002036
:020000040000fa
:0639d40001204042704793
:020000040000fa
:0439da000020704712
:020000040000fa
:0439de00002070470e
:020000040000fa
:0439e200002070470a
:020000040000fa
:0439e6000020704706
:020000040000fa
:0439ea000020704702
:020000040000fa
:0439f0007047c04616
:020000040000fa
:0439f40000207047f8
:020000040000fa
:0200000400807a
:0440000077c700d8a6
:020000040000fa
:0200000400807a
:044004005c00ffff5e
:00000001FF
