:020000040000fa
:10000000f07f0020cd2800009f1500007718000029
:1000100000000000000000000000000000000000e0
:100020000000000000000000000000000b130000b2
:1000300000000000000000000b130000692e00000b
:100040000b1300000b1300000b1300000b13000038
:100050000b1300000b130000092200000b1300001b
:100060000b1300000b1300000b1300000b13000018
:100070000b1300000b1300000b1300000b13000008
:100080000b1300000b130000912e00000b13000057
:100090000b1300000b1300000b1300000b130000e8
:1000a0000b1300000b1300000b1300000b130000d8
:020000040000fa
:1000b000f8b5c046f8bc08bc9e46704765280000ed
:1000c000f8b5c046f8bc08bc9e4670473d28000005
:020000040000fa
:0800d000c4160000010000004d
:020000040000fa
:1000d800f0b59bb013930b6815900a938b680d913c
:1000e8000b930b694d681893cb68029313680893b8
:1000f80053680898069300220023069902f02cfd05
:1001080000280dd10a9b5b073bd408200a9b0340bb
:1001180009930b9b0393099b002b0fd0202306e028
:10012800802212069446069b634406932d23029a66
:1001380013700b9b013b039301230993069b0899ba
:100148005b005b08924a00291dd193421bd102999a
:10015800139b8c46099a413b624410008d49192b28
:1001680000d98d4903f0e2f8029803f015f80a9bcc
:100178000200009302990b9b159802f0bdf81bb082
:10018800f0bd2b23d3e7934203d80ed1089b002b55
:100198000bd00299139b8c46099a413b624410008c
:1001a8007e49192bded97e49dce700220023089816
:1001b800069902f0e7fd00267a4f002400283ed178
:1001c800040002e00134049e059f0022764b3000b3
:1001d800390000f0edff089a069b0490059102f0a3
:1001e8009cfc0028eed00023049320e06f4b9c4237
:1001f80014da049b002b11d100226d4b0898069944
:1002080000f0d6ff6a4b08900691300039000022b2
:1002180000f0ceff012306000f00049330003900e0
:100228000022614b01f0ecfb06000f00013c32009c
:100238003b000898069902f08ffc0028d6d1139845
:1002480003f060f8c3b20c93002d00da94e1049334
:10025800672b00d0b2e0002d00d189e1231d02db1d
:10026800ac4200daa6e06523b6e0002200230e9235
:100278000f9303e106960797049b2600652b00d091
:100288001ae1002618e1129b002b0bd1002e09da87
:10029800029a14992e335354039b0137013b03935d
:1002a80001231293ea193b009446302102e0029a96
:1002b800d15401339c45fad1039aeb19551b029a84
:1002c80030305f1cd0546b1e0393002521e00d9b3a
:1002d80014971b691093053bbb4200d8f5e0069aba
:1002e800079b08980e9901f08bfb01f0a5fc109074
:1002f800119102f0fbfc092800dd092010230a9a5d
:1003080013400343bfd10c9b672bbcd1002ec9da25
:1003180001358020000684460e99089a61440b0036
:100328001098119900920193069a079b02f0e2ff38
:1003380080231b06cb1808900e9306980799002275
:10034800194b01f05dfb013e06900791b9e00a9b4d
:10035800db0600d4bde02e23029ad3550137b8e05e
:1003680020000a2101f066fd029b3031013d5955fc
:1003780020000a2101f014fd039b0400013b0393b4
:10038800b7e0029b03991a5c5b181a540138e0e045
:100398000000f07fdc320000e0320000e4320000b0
:1003a800e83200000000f03f00002440d4feffffc8
:1003b80000005043002c0eda66230493049b013599
:1003c800662b0ad1002c02da002600246d4f0c9b04
:1003d800672b00d02d1966230493089b0e960f9760
:1003e8001293069b1093002314930e9a0f9b129856
:1003f800109901f005fb01f01ffc1690179102f00f
:1004080075fc19908020000684461099129a614460
:100418000b0016981799009201930e9a0f9b02f001
:1004280069ff80231b06cb18129010930e980f9922
:10043800554b002201f0e4fa149b0e900f91013302
:1004480014939d42d1d10022504b00f0b1fe0e9082
:100458000f9102000b001298109902f07dfb002802
:1004680000d002e70e9a0f9b1298109902f08afcae
:10047800002803d0199bdb0700d4f6e60e9a0f9be1
:100488000898069900f094fd002208900e913e4bc2
:100498003000390000f08cfe089a0e9b06900791f8
:1004a80002f078fa002800d1e4e6049b0134662bb8
:1004b80000d0e1e626000135731b0025099f16933d
:1004c8001295169b9e4200d001e7129b002b00d18b
:1004d8003de70026029bdb1906931e70049b652be3
:1004e8002ad1189b5d1e029b5e55b44201da644214
:1004f8000136002c00d033e7189beb1a0333002b8e
:1005080000dd2de76a1e2d23002e00d1023b029943
:10051800023d8b54139b413b192b01d8452304936f
:10052800029b5919049b0b70039b023b0393af4238
:1005380002da069802f0fafe03230a9a1340022b05
:1005480000d011e6039b002b00dc0de6029802f0b8
:1005580023fe099b834200dc13e7029a302194466c
:1005680063441800039a02f07ffe00230b93fbe517
:10057800012573e6062571e60c9b672bfad00493d8
:1005880006251be70000f03f00002440000014404f
:020000040000fa
:100598000023f0b506001500b1b007910393079941
:1005a8000b78002b00d10ce101235b420c9310abbc
:1005b80000240e9380230b940d940f930b5d002b56
:1005c80001d0252b2ad1002c06d02200300002f0c1
:1005d80001fb079b1b190793079b1a78252a00d054
:1005e800e4e0013304930793022301219c4610277a
:1005f800079803782b2b1ad025d8202b1ad0232b19
:100608001dd02a2b28d002f029fa0d90079b1a78c2
:10061800303a092a31d801330793f7e70134cde797
:100628000b9b05930b4301300b930790e0e70423e2
:100638000b9a0fe00b9b0593059a08230ae00b9b86
:1006480005933b43efe72d2bead0302bd9d16246f7
:100658000b9b05931343e6e72b6801301a1d1b68b3
:1006680007902a600d93002b07da0b9a5b420592dc
:10067800012205990d934a400b920b9bda0702d58c
:10068800022293430b93079b1a782e2a0ed100223d
:10069800581c0c9207905a782a2a27d102330793bc
:1006a8002b681a1d1b682a6005930c9307a802f093
:1006b80003fb079b0700187802f024fe692800d185
:1006c80082e034dc632800d1dbe01adc252800d185
:1006d800e8e0612858d0049b012207930023524286
:1006e8000c920b930d9300930232e5e002f0b6f9f9
:1006f8000c90079b1a78303a092ad7d80133079308
:10070800f7e7642860d06728e5dc2a00390008a8e4
:1007180002f07cfb002800d1afe0079b0ba95a1c14
:1007280007921b7808aa3000fff7d2fc3de070283a
:1007380000d17de016dc6e2800d197e06f28cad181
:100748002b000022390008a801f0bcf9002800d1cc
:1007580093e0079b08aa01330ba93000079302f026
:1007680002fe22e0752840d078284fd07328b2d1f5
:10077800802f00d081e0079b2a6801330793131d5f
:100788002b601268002388e02a00390008a802f0cc
:100798003dfb002800d170e0079b0ba95a1c07926b
:1007a8001b7808aa300002f0e0fd2418039b1c19ee
:1007b800a34200dc82e04f22414b1a6001235b42d6
:1007c8000393039831b0f0bd2b000122390008a82b
:1007d80001f078f9002850d0079b08aa01330ba92b
:1007e8003000079301f082fadfe72b00002239007e
:1007f80008a801f067f900283fd0079b08aa013331
:100808000ba93000079302f0aefdcee72b000022c3
:10081800390008a801f056f900282ed0079b5a1c69
:1008280007921b7808aa0ba9300002f09efdbce7ce
:100838002b000022f02108a801f044f900281cd060
:10084800079b099a01330793089b13430cd11d4f4b
:10085800380002f0a1fc390002000b9b00930d9bad
:10086800300001f049fda0e77823dbe7039b39005e
:100878001a1908a82b0001f0b7fd079b013307934d
:1008880094e7802ff9d1079b013307932b681a1d32
:100898001b682a6008aa137001230ba9300002f014
:1008a80066fd82e7802fe8d10122079b0133079379
:1008b8000b9b049300930d9b0349d1e703946ee6c9
:0c08c800381d0020543300005a3300009b
:020000040000fa
:1008d400b0b588b002af002001f052fe02f0e6fb92
:1008e40002f0fcfb642002f07bfc02f083fc8f4ae4
:1008f4008f4b1900002002f0dffc8e4b00221a609f
:100904008023db008c4a8d49002001f017f802f0a7
:100914001bfd03007b61786902f080fb031c3b61d3
:100924000e257c1902f04afb030023807b191b88e7
:10093400180002f073fb031cbb60b86802f00af8ed
:1009440000227f4b00f036fb03000c0025001c0046
:10095400386901f0ffff02000b000020784901f024
:1009640051f802000b002000290000f023fc0300d2
:100974000c001a0023000020714901f043f8030021
:100984000c001800210001f0c9fd031c7b6078688d
:1009940002f0f0fa03003b60386802f03ffb694b59
:1009a40069491a0001f09cfa02f0bcfc674b18007c
:1009b40002f014fb664a674b1100180002f00efbac
:1009c400654b180002f00afb80239a00634b110068
:1009d400180002f003fb624b624c63491a002300c7
:1009e400080002f0fbfa5a4a604b1100180002f0aa
:1009f400f5fafa23da005e4b1100180002f0eefa61
:100a04005c4b5d4c5d491a002300080002f0e6fad5
:100a14005b4b0121180002f0e1fa3a68594b1100ce
:100a2400180002f0dbfa584b180002f0d7fa02f073
:100a34006dfbfa239a00554b1100180002f088fa56
:100a4400524b180002f056fb031e40d0504b1b685b
:100a54005a1c4f4b1a603b4b9a694e4b1b68d21879
:100a64004c4b1a604b4b1a68494b1b681900100019
:100a740001f098f903001a00474b1a60444b1968b7
:100a8400304b9c69444b1d682e4b1a6a2d4bdb6915
:100a94004248019300922b00220002f09ffa294b56
:100aa4001b6a3f4a53431a14264bda61254bda6911
:100ab4003c4b9a61234b00221a62224b00229a611a
:100ac400fa239a00314b1100180002f041fa364b18
:100ad4001b78dbb2002bb3d0334b00221a70154bba
:100ae4001b68002b10d13149982280239b028b5024
:100af400144a2f492f4b180000f0cefd2b499422a5
:100b040080239b028b509be72849982280239b02d9
:100b14008b500c4a2849084b180000f0bdfd2349ae
:100b2400942280239b028b508ae7c046181d002024
:100b340001200000281d0020081400201a40004253
:100b44000000f03f581c002000401c46d00d00005f
:100b5400102700000c0e00004c0e0000780e000060
:100b6400f168e388b5f8843f940e0000b00e0000ed
:100b7400cc0e0000d7a3703d0ad7ef3fe80e00006b
:100b8400040f0000200f00003c0f0000081d00208f
:100b9400241d0020201d00201c1d00207c0f0000af
:100ba400666601007c1c0020441d002000440041b6
:0c0bb400000800200818002000000020ad
:020000040000fa
:100bc0009c1c00205800000000000000001d0020b8
:100bd0000800000000000000181d002014000000a4
:100be00000000000441d0020010000000000000083
:100bf0000814002000080000000000007c1c0020f9
:100c00002000000000000000581c0020240000000c
:100c100000000000081d0020080000000000000087
:100c2000000000200010000000000000341e002022
:100c30000400000001000000010000002c1d002045
:100c40000400000000000000301d00200c00000027
:100c500000000000081c0020500000000000000000
:100c6000481d00206c00000001000000541d002001
:100c7000501d0020541d0020000000002500000031
:100c80000810002000040000000000000000000028
:100c90000000000000000000000000000000000054
:100ca00000000000000000007b3300000000000096
:100cb00000000000000000000000000059240000b7
:100cc0000000000000000000000000000000000024
:100cd00000000000000000000010002008040000d8
:100ce00000000000141e0020200000000100000091
:100cf00001000000030000000000000000000000f0
:100d0000000000000000000000000000101d002096
:100d1000101d002008000000000000003c1d002005
:100d20000400000000000000b41d0020600000006e
:100d300001000000010000000300000000000000ae
:100d400000000000000000000000000000000000a3
:100d500099260000000000000000000000000000d4
:100d6000413300009f2b0000000000000000000045
:100d70000000000000000000000000000000000073
:100d80000000000000000000000000000000000063
:100d900000000000381e00200400000001000000d8
:100da00001000000401d00200400000000000000c1
:100db000f41c00200c0000000000000000000000f7
:100dc000000000006666666666666666666666665b
:020000040000fa
:100dd0000a0d2d2d2d2d2d2d2d2d2d2d2d2d2d2d86
:100de0002d2d2d2d2d2d2d2d2d2d2d2d2d2d2d2d33
:100df0002d2d2d2d2d2d2d2d2d2d2d2d2d2d2d2d23
:100e00002d2d2d2d2d2d2d2d2d2d2d000a0d204478
:100e100065736372697074696f6e202020202020d2
:100e200020202041444320444d412025642050751a
:100e30006c736520446574656374696f6e2020204f
:100e40002020202020202020202020000a0d2042c9
:100e500075696c642054696d653a2020202020203b
:100e60002020204a616e2032382032303235203145
:100e7000353a31393a3133000a0d20424c4f434b59
:100e80005f53495a453a2020202020202020202549
:100e90006400c0460a0d20424c4f434b2054494d3c
:100ea000453a202020202020202020256600c04612
:100eb0000a0d204652455155454e43593a202020af
:100ec00020202020202020256400c0460a0d204735
:100ed0004f4552545a454c5f5448524553484f4c25
:100ee000443a20256400c0460a0d2044414d504933
:100ef0004e475f464143544f523a20202020202540
:100f00006600c0460a0d2057494e444f575f53496b
:100f10005a453a2020202020202020256400c04669
:100f20000a0d2053414d504c45524154453a202022
:100f300020202020202020256400c0460a0d2d2dd1
:100f40002d2d2d2d2d2d2d2d2d2d2d2d2d2d2d2dd1
:100f50002d2d2d2d2d2d2d2d2d2d2d2d2d2d2d2dc1
:100f60002d2d2d2d2d2d2d2d2d2d2d2d2d2d2d2db1
:100f70002d2d2d2d2d2d2d0a0d00c0465365636f8f
:100f80006e6420256420094265617420256420096f
:100f9000417665726167652025642009416d706c3a
:100fa0006974756465202564207468726573686f60
:080fb0006c642025640a0000b6
:020000040000fa
:100fb800f0b40125ed070f005f405ad48b4200d1f1
:100fc800824205d950404240504059404b40594018
:100fd8004e18760ddf187f0d3bd0741c640529d0a0
:100fe800f41b352c26d80e0ddb022b43db0ac90275
:100ff8002943c9121700202c1ed2e741e24057406e
:10100800e3415a40a340e3405a4000248018594124
:101018000ad3b21c520521d0c207012f6241170022
:101028004008cb0718434908013636054208af4146
:1010380060417141f0bc7047203c06d01f00e74179
:10104800e3405f400024012a6741c0186141ebd3a7
:10105800dfe7002eeed129400020ebe7013631050d
:101068000020e7e7e742e5d10020c143090dc904a4
:10107800e0e76b400e00871a9e4104d26e40c01b09
:10108800b141d21973414e18df18ac0ae642e9d2d1
:10109800760d7f0d31d0f41b362ccbd8b4460e0d0f
:1010a800db022b43db0ac9022943c90a012c32d8c7
:1010b80004d1d4075208df073a435b08ef0a6442b9
:1010c800904199411ed0002239424dd12419404106
:1010d80049410124394204d10134001849413942b7
:1010e800fad06246a24204d9361b013e3605891958
:1010f800a0e7f10ac90700209ce736429ad10020f0
:10110800002197e70200224394d0b842ded20100c2
:1011180020002024e3d1202c13dd203ce2411700dd
:10112800a240e2405740e3415a40a340e3405a40be
:10113800012fbf410137174300227c42984191415a
:101148000ce01700e741e2405740e3415a40a34012
:10115800e3405a407c429041994100220f0303d258
:10116800013e241940414941013e36054708ac413a
:0811780050417141f0bc7047c9
:020000040000fa
:1011800008d1002806d1f54204d801d3002a01d1a4
:101190006d0d09d10020c143090dc904f0bdf9d17d
:1011a0001242f7d1640df5d00020c143490549082a
:1011b000a6e000206146f0bdf0b50127ff070e0054
:1011c0005e403e40b446be0a4c18dd18f442d7d209
:1011d000f542e4d2640decd06d0dead06419c90279
:1011e0003943460dc0023143db023b43db0a10b4f6
:1011f0008e4685b297b26f43140c6c433e0ca41913
:10120000260c2404bfb227439cb26c43a419190cca
:101210006943250ca4b249190d04090c6419000c8a
:1012200095b245433e0c76193743bfb2360c150cc8
:101230004543ad19a6b2240cad192e0437432e0c2c
:1012400036199db24543ad19acb22e0c89191d0c4f
:1012500045436d182e04290c3443704680b295b274
:1012600045433e0c76193743bfb2360c150c454347
:10127000ad19a6b2ad19240c2e0437432e0c361925
:101280009db24543ad19acb22e0c89191d0c4543d6
:101290006d182e043443290c75462d0c90b268430a
:1012a0003e0c80190604bfb23e43070ca0b23f18a3
:1012b000120c6a43d019020c80b2240ca4189ab202
:1012c0006a43121914042043120c89181b0c6b4337
:1012d000c91810bc01273d05294203d1b619404168
:1012e0004941013cff077d0d013d641b0bdb6d0097
:1012f000ac4209da240500254208be41684161413b
:0a13000066463143f0bd54e74ee7a6
:020000040000fa
:02130a00fee7fc
:020000040000fa
:10130c00ff2270b50100051c43001206934200d168
:10131c0078e0484a934200d989e0002831db4649fd
:10132c0000f09af8444900f097f8444900f08afd1f
:10133c0001f0d2fb040001f0e1fd01232340013b4d
:10134c00de078023fc211b069c468905664401f0c0
:10135c00b7ff3b49041c00f012fc291c00f07cf880
:10136c003849051c201c00f00afc011c281c00f04c
:10137c0073f8354a4300041c5b08934247d870400d
:10138c0070bd2d4801f09cff2b4900f065f82b49ee
:10139c0000f058fd01f0a0fb060001f0affd80232a
:1013ac0001241b06fc219c463440013c8905e407c2
:1013bc00644401f085ff2249061c00f0e0fb291c67
:1013cc0001f07eff1f49051c301c00f0d8fb011cee
:1013dc00281c00f041f81c4a4300051c5b08934292
:1013ec000ed9011c00f0cbfb0522011c174801f0a3
:1013fc00f1f8011c281c00f0c2fb291c00f02cf891
:10140c006040bde72122124b12481a60b8e7011c5c
:10141c0000f0b5fb0522011c0c4801f0dbf8011ca7
:10142c00201c00f0acfb211c00f016f8a7e70948c3
:10143c00a6e7c046fffffffedb0fc93fdb0f4940ad
:10144c00001049c07a771537fee6db2e34320000e7
:08145c00381d00200000c07fd4
:020000040000fa
:101464000122d20703004b403dd430b4431a01d2c9
:10147400c01ac9184b004400240eff2c29d0002c9c
:1014840024d01b0e20d0e31a182b1ddc09021143b3
:10149400c40d000210435d4219350a00aa40d20966
:1014a400d940451801d36d080234013ce405280aeb
:1014b4000121c9072d062a438a4160414100090ed2
:1014c400ff2901d3c00dc00530bc7047c00fc00751
:1014d400fae742001823da41ff2af5d07f20000101
:1014e4000c300005f0e7a4465140431a02d25340a1
:1014f400c01ac9184b00090211431b0e4400240ee4
:10150400ff2c41d0002b10d05b421b19012b10d3b0
:1015140022d1c30d4002401a10d3db050100400a5a
:10152400c90591415841644670472442fbd10020cb
:10153400f9e7c30d40024900401af4d000210131fb
:101544004000fcd38c4204d95b1adb05400ac01866
:10155400e9e7180ac007e6e7192be4d801330c00c1
:10156400d940dc414c40012c4941c30d00021043d9
:10157400441a01d4a4006408013bdb05200a2406b4
:101584009441584164467047ff2b01d04102cad0b0
:0a1594007f2000010c300005c5e7c0
:020000040000fa
:02159e00fee766
:020000040000fa
:1015a0004200f8b5130e013b051c0100fd2b54d879
:1015b00000283adb3049fff755ff304900f048fc7e
:1015c00001f090fa070001f09ffc802301241b0624
:1015d0009c463c40013c2a49e407061c644400f058
:1015e000d4fa291cfff73eff051c2649301c00f0e9
:1015f000ccfa011c281cfff735ff234a4300051cc9
:101600005b08934201d86040f8bd011c00f0bdfab0
:101610000522011c1d4800f0e3ff011c281c00f0fe
:10162000b4fa291cfff71effede7134801f04efe48
:10163000124900f00dfc01f055fa040001f064fcc1
:10164000061c012020400138c4070d49301c00f061
:101650009cfa291c01f03afec6e7ff231b069a42ba
:1016600004d00b4b9a42cfd90a48cde721220a4b2e
:1016700008481a60c8e7c046db0fc93fdb0f494086
:10168000001049c07a771537fee6db2e34320000b1
:0c169000fffffffe0000c07f381d00209f
:020000040000fa
:10169c00f0b5de4657464e46c0b582b016008a46b7
:1016ac008023db009b468344050014e06410091b77
:1016bc000914002001f032fd53461860304b1b68b2
:1016cc00012b46d001332e4a1360023504239c466d
:1016dc00e2445d454dd02c88a408336aa34200da5d
:1016ec00346237693368d917fb173a00306801f058
:1016fc0071f9244a002301f06df9a4036118736990
:10170c00c91af1603b12ff1a77610c120c1b346181
:10171c00fb177268d1173a000193706801f05af9ff
:10172c000904000c0843241ae217a4185440b268a8
:10173c00d1173a00019bb06801f04cf90904000c78
:10174c000843c317c018584021188442aedd04006a
:10175c00ace70b4b00221a60f3698342b5da002325
:10176c00f36033617361b3690133b36101f0d6fd8a
:10177c00abe702b01cbc91469a46a346f0bdc046ee
:08178c002c1d0020b8fe000036
:020000040000fa
:10179400f0b5060085b00f0015001c008b4265d81b
:1017a40001d1824262d82100280001f0ebfc39000b
:1017b4000090300001f0e6fc009b21001b1a1a0087
:1017c4002800039301f0d2fc00900191019bbb42dd
:1017d40046d802d1009bb34242d8009b019c039a95
:1017e40001200021f61aa74101f0c0fc039b002b45
:1017f4002fd0019b009adb0754081c43019b5d0812
:10180400039b9c46bd422ed801d1b4422bd8320052
:101814003b00121bab41012692185b410027b6180e
:101824005f4101235b429c446346002bead180194b
:101834007941039a04000d003000390001f08afc5c
:10184400039a06000f0001f091fc241a8d41200038
:1018540029000a9b002b01d01e605f6005b0f0bd1b
:1018640000200021c2e7b6197f41dae700200021f9
:02187400efe79c
:020000040000fa
:02187600fee78b
:020000040000fa
:10187800244b00229a619a8c80218a439a841a0008
:101888001023d1680b42fcd01f4b1b689b0e3f2bcb
:1018980035d09b028022920013431a4a9362102388
:1018a800d1680b42fcd0174b02229a841a001023ed
:1018b800d1680b42fcd0154b154a5a60154a9a60fc
:1018c8001a0053785bb2002bfbdb104b124a5a60ac
:1018d8001a0053785bb2002bfbdb0c4b0f4a5a8083
:1018e8000f4a5a800f4a5a800f4a5a800f4a5a8024
:1018f8000f4b104a1a62034b00221a627047203bb2
:10190800c7e7c0460008004024608000000c004083
:10191800010301000120000000070100044100004c
:1019280007400000174000001b4000001e40000058
:08193800000400402208010038
:020000040000fa
:10194000f0b505012d4c6419267bf6b22c4d3f27ce
:10195000ec5de4b2e8550f37ed5dad0702d100252f
:10196000002e3bd1264e4e25032777550501234ee9
:101970007619023f3773234ead5b6d0533d5c91819
:101980000601204dad19696001011e4d495b090535
:101990002ed5d21805011b4949198a60194905013c
:1019a0006a5a9205920fd3409bb249194b80144a50
:1019b0004021535c02252b435354516c536c9b04c0
:1019c0009b0e08220a4013430125002b06d10c4a26
:1019d0001169012383400b4313610125084a3f230a
:1019e000d4542800f0bd0601064dad196960cbe75f
:1019f0000501044949198a60d0e7c046c81c002087
:081a000000480041b81c002061
:020000040000fa
:101a0800f0b40125ed070c005c402c40a446ae0a5a
:101a18004c18df18f4423dd2f74245d2640d4cd041
:101a28007f0d3cd0e41bc9022943cf0adb022b43bc
:101a3800db0a0600b61a9f4104d2013cb6197f4161
:101a4800b6185f416812800d241838dd00188442ea
:101a580025d8e80c0021b6197f41b61a9f4103d357
:101a680040414941f7d304e0b6185f4100184941a5
:101a7800f1d32405b6197f41b61a9f4105d33743e0
:101a8800c20717430022012f5041614162461143aa
:101a9800f0bc70470cd100280ad1f74208d20020c8
:101aa800c143490d0905f1e7002a01d1f74206d0e3
:101ab8000020c143090dc904eae77f0df8d00020d2
:041ac8006146e5e7a7
:020000040000fa
:101acc0010b588293cd015dc81294dd003dc802948
:101adc004ad0002010bd822911d08429f9d119686f
:101aec00002a26d00a1d1a6000228b5e0360db17c9
:101afc00436011e0a02930d010dc9029e9d119689d
:101b0c000724002a2ed00919a1430a0008321a60b2
:101b1c000b684c68036044600120dbe7c02901d0ee
:101b2c00f029d6d11a68111d1960136803600023bf
:101b3c00dee70c1d1c600b689bb203604260ebe798
:101b4c001968002a04d00a1d1a600023cb56cde771
:101b5c000c1d1c600b68dbb2efe71a68111d1960d5
:101b6c001368c3e70731cfe71968002a03d00a1db1
:0e1b7c001a600b68bae70c1d1c600b68dde7f1
:020000040000fa
:101b8a0030b405004d400124e407254042004b00d3
:101b9a00120e32d01b0e3cd0ff2a33d0ff2b3fd07f
:101baa00d21800022043000a09022143090ac4b2da
:101bba004c43000ac3b24b43000a4843210a5b184c
:101bca00190a091801d44900013a080a7f3a2adb9e
:101bda00fe2a0fd2d2051c43240601d00124214338
:101bea00c9b280295041802901d1400840002843c8
:101bfa0030bc7047ff20c005f9e71b0eff2b0ad047
:101c0a002800f5e7400206d1ff2bf3d1490202d1a1
:101c1a00f0e7ff2af4d17f2000010c300005e7e746
:101c2a004902f8d1e6e743020132e9d15b120233f5
:061c3a00e6d9d805e4e73d
:020000040000fa
:101c40004b005b0d264af0b55c1e944238d8254afd
:101c50009e1825d4332e22dc234a9b1827d4234aee
:101c6000da400700214b9743f3403c000f0002404d
:101c70009f4319403d000a430fd0002f0dda202367
:101c80005b42f11824d480204003c8400200802128
:101c90004903f1400b00a4185d4120002900f0bd6c
:101ca0000020002901db0021f9e71149f7e7202294
:101cb0000e4b921b934001225242f2401a43d0e74e
:101cc000002becd10022c90fcb0710001900e6e76a
:101cd00020218020891b400388400200d7e7c046ae
:101ce000fd07000001fcffffe1fbffffffff0f000e
:041cf0000000f0bf41
:020000040000fa
:101cf400f0b54b6889b005930b6807009c460793c1
:101d0400cb680c008e68049310685168cd0f44d0e2
:101d14000b000200002150429941059b002b08db77
:101d24000222634693430793002d02d1079b5a076f
:101d34002ad5731e07aa02920a22009301920b006d
:101d44000200200000f017fb002d02d1079b5a0768
:101d54001ed501382d23002d00d1023b049a1354c3
:101d640023695a1e049b121a1918079b3800009302
:101d7400330000f0c3fa7b68db0503d5636898423f
:101d840000da180009b0f0bd1b07db0ff31ad1e726
:101d94001b07e5d501382023e0e7059b002bbfdabc
:021da400c4e792
:020000040000fa
:021da600704784
:020000040000fa
:101da800002941d010b4041c4c40a4460123002251
:101db800002900d54942002800d5404288422cd34a
:101dc80001242407a14204d2814202d209011b0145
:101dd800f8e7e400a14204d2814202d249005b0044
:101de800f8e7884201d3401a1a434c08a04202d3ac
:101df800001b5c0822438c08a04202d3001b9c08ed
:101e08002243cc08a04202d3001bdc08224300284e
:101e180003d01b0901d00909e3e7101c6446002c14
:101e280000d5404210bc704701b5002001f0a4fa6b
:101e380002bdc0460029f7d003b5fff7b3ff0ebcbb
:081e48004243891a1847c04605
:020000040000fa
:101e500030b405004d400124e407254042004b000a
:101e6000120e26d01b0e34d0ff2a2dd0ff2b35d0da
:101e7000d21a000220430902214343084908a00d59
:101e80005b1a02d2013a5b005b185b008b4200d305
:101e90005b1a4041f9d37f3222ddff2a06d2d205f8
:101ea000c91a8b425041284330bc7047ff20c005ff
:101eb000f9e71b0e03d0ff2b12d1490210d07f206f
:101ec00000010c300005efe74002f8d1ff2bedd107
:101ed000f5e7ff2aead14002f1d1e7e74902eed166
:041ee0002800e1e70e
:020000040000fa
:101ee400f8b5051c1400081c00f034fd1e4a1f4bf5
:101ef400fff760f906000f00281c00f02bfd02001c
:101f04000b0030003900fff77dfd00f007fb061cd5
:101f1400fff7faf9051c301cfff740fb061c8f2164
:101f2400c905281cfff72ffe00f0dafd60608f2141
:101f3400c905301cfff727fe00f0d2fda060291c64
:101f4400281cfff78dfa8f21c905fff71cfe00f04e
:101f5400c7fd20600023e36023616361a361fa226b
:101f6400d200e2612362f8bd182d4454fb211940cc
:020000040000fa
:101f7400002934d00123002210b488422cd3012438
:101f84002407a14204d2814202d209011b01f8e7cd
:101f9400e400a14204d2814202d249005b00f8e786
:101fa400884201d3401a1a434c08a04202d3001bb2
:101fb4005c0822438c08a04202d3001b9c082243e5
:101fc400cc08a04202d3001bdc082243002803d023
:101fd4001b0901d00909e3e7101c10bc704701b5c7
:101fe400002001f0cbf902bd0029f8d003b5fff7ba
:0c1ff400c1ff0ebc4243891a1847c046ca
:020000040000fa
:1020000010b5012802d002282ed010bd174b012296
:102010001a70174b1b68002b12d1154b1a60154a0a
:10202000982380214902d150134b1b68012becd11e
:102030007f33db00114a12490020fff781fce4e7ff
:102040000b4b00221a600b4a942380214902d15085
:10205000094b1b68012bd8d17f33db00094a0849a3
:102060000020fff76dfcd0e7fee7c046441d0020ce
:10207000281d002000440041341e002008180020c4
:082080001a4000420814002080
:020000040000fa
:10208800f0b51600050002278369426987b00293fc
:10209800d31a03939b1904910596019302ac3a0055
:1020a8002100286800f018ff019b984208d1ab680e
:1020b800ea68ab619a18aa626b61300007b0f0bd9c
:1020c80000280cda102200236968ab620a43ab616e
:1020d8006b616a60022f12d06368f61aede7019b04
:1020e8001b1a01936368984202d9c01a0834013f49
:1020f80023681b1823606368181a6060cfe71e0006
:02210800dbe713
:020000040000fa
:02210a0070471c
:020000040000fa
:10210c001e4bf0b51c68231e0dd0002221001500bb
:10211c0013000f68bc460f6984450bd1002a06d00a
:10212c0017610b0010331800f0bd3900f1e7134ba9
:10213c001f60f6e7844504d9002b1ad01e68b445fd
:10214c0017d30a00002ff0d1002becd01f001a6817
:10215c001969121a1037102a05d91860381801613c
:10216c000100103a02609c4206d1044b19603b00fe
:10217c00d9e715000b00e4e72961f8e7401d0020c2
:020000040000fa
:10218c001b4b01221a701a00537e5bb2002bfbdb37
:10219c00184b1a68184b1b68db0e072111404901bc
:1021ac000b435201e021c9000a401343104a138526
:1021bc000323d370013b5370c0235b011361537e27
:1021cc005bb2002bfbdb0a4bc02292009a801a00f8
:1021dc00537e5bb2002bfbdb054b0f221a760e3abb
:1021ec001a751a00537e5bb2002bfbdb7047c0469e
:0c21fc0000400042246080002060800051
:020000040000fa
:1022080010b582b0002301931a4a118c0f330b408a
:102218003f21545ce4b253540f31525cd2b2019264
:10222800019a0220920708d512494e2288541901b2
:10223800114a5218002111730138019ad20709d5a1
:102248000c494e220120885419010b4a52180021ca
:10225800117301301901084a52185268002a04d033
:10226800054a531899685b689847024a3f23d45433
:0c22780002b010bd00480041c81c00204e
:020000040000fa
:10228400f8b5846a05000f001600002c0ad0ab6a6a
:102294006a699b1ab3420cd2320039002800fff756
:1022a400f1fe05e000f0f4fe03002000002beed068
:1022b400f8bd002ef0d02b0034331b785bb2002b1a
:1022c4001adb3400dbb2621eb95c994212d12200df
:1022d40039002800fff7d6fea042e9d33f19341b8a
:1022e40022003900686900f099ff6b6930001c19fd
:0c22f4006c61dde7141ee6d13400f1e758
:020000040000fa
:10230000f0b51d00012389b014000e9a06001a4092
:102310000391029201d1a5420ad82200039930000c
:1023200000f05cfca54203d82500280009b0f0bdf0
:102330002f1b01973a00102f00d91022202104a84a
:1023400000f096ff019b0f2b0ed80f2204a93a40f4
:10235000300000f043fc029b002be6d122000399e1
:10236000300000f03bfce0e7102204a9300000f050
:0a23700035fc019b103b0193e4e7ec
:020000040000fa
:10237a00f7b5040019000a9fe368666800933b6892
:10238a00100001932369013b1c00002e00da01268c
:10239a000022009dea5435000123002c03dc002ba7
:1023aa001cd02000febd02000a4309d1002d07dc23
:1023ba00089a921b5219002af1dd019a9207eed56a
:1023ca00099b099adb1700f068fb8c460099013ccf
:1023da00130030320a55013d6146dee710233a68a0
:0623ea009a433a60dde7b2
:020000040000fa
:1023f00010b584291fd007dc812915d0822922d06d
:10240000802911d0002010bd90291cd008dc88291b
:10241000f8d119680c1d1c600b6803601a7010e07d
:10242000a02901d0c029edd119680c1d1c600b68d2
:1024300003601a6005e019680c1d1c600b680360de
:102440001a800120dfe719680c1d1c600b6803600f
:082450001a60d2175a60f4e78c
:020000040000fa
:102458007fb51600c2680d0013000091591e8b410c
:10246800f31a019383680400039269460222006804
:10247800029300f01dfd002808dc18220823024002
:102488005340626813436360060010e0019b834277
:10249800fad2a268c01ae3681018e2632064002b1d
:1024a80005d0531ce3631378ad19013d2b70300040
:0424b80004b070bd3f
:020000040000fa
:1024bc0037b5164d04002b68002b0fd000f09afd99
:1024cc00019001a800f07dfe0f230f309843019975
:1024dc0000f0ccfd00280cd000232b60002c00d188
:1024ec0001340f230f349c4304d10c222000084be1
:1024fc001a603ebd042c00d204242000fff700fe1d
:10250c000028f6d0031f1c60f3e7c046381e0020dd
:04251c00381d002046
:020000040000fa
:102520004b1801225205da4217d25b0d0722d20165
:102530009b1a0fd9ff2b13d2db05ca0fd207134307
:102540000903020d1143490ac200524100d9013169
:10255000c8187047c80fc007704706d1002804d1bb
:10256000c80f0002ff30c00570470123db070a00d7
:10257000c900400f084398431a4010435b0a1843b0
:022580007047a2
:020000040000fa
:022582007047a0
:020000040000fa
:1025840010b5134b06225a60124b1b6818680021c1
:1025940000f080fe104b1b681868002100f07afee2
:1025a40000f024f9fff766f900f052fb00f0b4fee6
:1025b40000f088fd00f0bafc00f09af8fff7e4fda3
:1025c40000f02efa00f05cf900f0e8fa10bdc04605
:0c25d400004000414c1d0020301e002083
:020000040000fa
:1025e00070b5941ea40004190d1c281c6168160007
:1025f000fff7cbfa2168fef735ff291cfff7c5fa74
:10260000231f1968fef72eff032e11d0291cfff798
:10261000bcfa2300083b1968fef724ff042e07d0fc
:10262000011c0c3c281cfff7b0fa2168fef71affca
:0c263000011c281cfff7a9fa70bdc04671
:020000040000fa
:10263c0000230e4a10b513600d4a13600d4a136047
:10264c000d4a13600d4a13600d4a53621361013336
:10265c00936000f045fefff752fd0a4c0a4b9c427a
:10266c0000d310bd08cc9847f8e7c0463c1d0020ad
:10267c00141c0020101c0020081c00200c1c002026
:0c268c00181c0020bc000000c000000072
:020000040000fa
:1026980070b504000d00002801d1002070bd43680a
:1026a8009b0607d543698269934215d80023a36224
:1026b800a3616361e16b236c994204d2c91a0122b8
:1026c800206800f05bfe00232364e3639d42e4d0ae
:1026d800206800f043fee1e70022c36a1100984732
:0c26e8006369002be2d101204042d7e7db
:020000040000fa
:1026f40010b50d4a002111705160916011730b489f
:102704000b4b58630b4c9c630b4c5c613f24195579
:102714000a4959640a490180012111704d2202318c
:102724009954084a1a8010bdc81c0020b81c002007
:1027340000480041d81c002081818181002780004d
:0827440009090000020f00006a
:020000040000fa
:10274c00f8b505000c000020002d20d000f046fb51
:10275c00002c17d000200e4a0421072605e0178d07
:10276c004300ef52013084420dd0137e0b42fcd05b
:10277c00538b334207d153683340012befd0138d69
:10278c002b54efe72000201a44426041c0b2f8bd40
:04279c0000140042e3
:020000040000fa
:1027a00070b5040016001d00022a1cd043689b0669
:1027b00019d4002908d1002d01d18025ed00280071
:1027c0000830fff77bfe010020236268a1601343fd
:1027d00063602300e5603433ff22012e00d10a221a
:1027e0001a70024be362002070bdc04685220000d3
:020000040000fa
:1027f000104b012242215a5414315a5401315a5477
:1028000026395a543a320f39995445320a49995067
:102810000022d0215a5401315a5405315a54013101
:102820005a5407315a5426395a5403315a540431f0
:0c2830005a547047004400410000c340af
:020000040000fa
:10283c0010b5064c2378002b07d1054b002b02d08a
:10284c00044800e000bf0123237010bd9c1c002035
:10285c000000000000000000044b10b5002b03d05a
:10286c000349044800e000bf10bdc0460000000052
:08287c00a01c00200000000078
:020000040000fa
:102884000f4b01221a801a00d37b5bb2002bfbdbb7
:102894000b4bb02252001a80e022ff321a83a53a71
:1028a400ff3a9a73074a0021116001225a731202f7
:1028b4005a811a00d37b5bb2002bfbdb7047c04606
:0828c400002c0042001d002061
:020000040000fa
:1028cc0010b50a4b98470a4b984700f0d9f9094bb9
:1028dc00ff229343084a9360084b9847084b98474c
:1028ec00084b9847fdf7f0fffee7c046a71d000018
:1028fc00a71d00000000000000ed00e03d260000d8
:08290c00a71d0000a71d00003b
:020000040000fa
:1029140070b5002818d0002918d000250c4a0124cd
:10292400072605e06b00c35a13850135a94209d077
:10293400137e2342fcd053683340012bf2d0435d15
:102944001385f2e7012070bd0020fce70120fae7bf
:042954000014004229
:020000040000fa
:1029580041008c46012212068a420bd80909382305
:102968001b06c918c30fdb07194340076346da4241
:1029780004d27047c10fc9070020704703d138231c
:102988001b06c918704738231b06c9180122d20430
:042998001143704730
:020000040000fa
:10299c0030b401256d054c00e54215d85c00e542cc
:1029ac0012d80c001c436400044314430fd005d20e
:1029bc0082428b418041013030bc7047904299413a
:1029cc008041013030bc7047002030bc7047012082
:0429dc0030bc704754
:020000040000fa
:1029e000f7b597b201933b00140c86b2050c734304
:1029f0006f4366436543f6191c0ca4199c46a74215
:102a000002d980235b02ed186346260c7519240455
:102a10009eb2019ba4194343200051435b195918ee
:042a200003b0f0bd52
:020000040000fa
:102a24000e4b01221a801a00937a5bb2002bfbdb57
:102a34000a4b80221a801a00937a5bb2002bfbdbcc
:102a4400064b802292009a611a00937a5bb2002ba3
:102a5400fbdb024b802252009a8070470014004036
:020000040000fa
:102a6400030010b51a78202a0dd011000939042961
:102a740009d900212b2a02d02d2a01d10131013399
:102a840000200a2404e00133ece760430133801a98
:102a94001a78303a092af8d9002900d1404210bde9
:020000040000fa
:102aa400002b11d1002a0fd1002900d1002802d017
:102ab4000021c943081c07b4024802a1401802902f
:102ac40003bdc046b908000003b4684601b50298c6
:102ad400fef75efe019b9e4602b00cbc7047c046ea
:020000040000fa
:102ae4004200110e7f390fd40123db0749421f3105
:102af4000cdd400003d2c0011843c8407047c00138
:102b04001843c8404042704700207047ff2109061f
:0e2b14008a4200d99843184000d4d843704735
:020000040000fa
:102b220030b401256d054c00e54215d85c00e54244
:102b320012d80c001c436400044314430cd005d289
:102b420082428b418041404230bc70479042994161
:0e2b52008041404230bc7047002030bc7047cc
:020000040000fa
:102b600030b401256d054c00e54215d85c00e54206
:102b700012d80c001c436400044314430cd005d24b
:102b8000904299418041404230bc704782428b4123
:0e2b90008041404230bc7047002030bc70478e
:020000040000fa
:022b9e0070477e
:020000040000fa
:102ba00010b5bff35f8f62b60a4bc12080001a5880
:102bb000094c2240c02109040a431a5040221a60dd
:102bc0000c301a582240114319508022d2021a6048
:0c2bd00010bdc04600e100e0ffff00ff68
:020000040000fa
:102bdc00436870b50400d80512d52569954200d913
:102bec001500002d0bd02a00606900f013fb226940
:102bfc0063695b19551b0022636125611a7070bdf6
:0c2c0c00db06fcd4200000f023fbf8e7fe
:020000040000fa
:102c18001c2101231b04984201d3000c10391b0a04
:102c2800984201d3000a08391b09984201d30009c8
:102c3800043902a2105c40187047c046040302021f
:0c2c48000101010100000000000000007c
:020000040000fa
:102c54000a4b0b4a1a600b4a9a81c02292025a60ac
:102c64001a00d369002bfcd1044a136802210b43d8
:102c74001360d369002bfcd17047c0460014004296
:082c8400040110402bf6ffffd4
:020000040000fa
:102c8c0010b50a480168002903d14368002b00d114
:102c9c0010bd04008368064a9bb20c349b009b5801
:102cac0042682000984780002018ebe7c00b00001a
:042cbc000c320000d6
:020000040000fa
:102cc000f0b5050000200a4a4400a65c002e02d19f
:102cd00012195078f0bd296801300f78c0b2b742a0
:102ce00003d112190131507829600a28ebd9f1e794
:042cf000b8310000f7
:020000040000fa
:102cf400f4464a1805d200f060f801d5c017400820
:102d0400604701235b05d34206d200f056f801d593
:102d14000120c0074042604701d10042f5d0d017de
:042d240040087047ac
:020000040000fa
:102d2800074b1a68002a01d1064a1a60064a116838
:102d3800002901d1054911601a68054b1a607047ce
:102d4800fc1c0020401e0020f81c0020402200200f
:042d5800f41c002047
:020000040000fa
:102d5c0070b5094d04002b68002b01d1fff7deff85
:102d6c00064a286812680419a24201d32c6070bd6f
:102d7c0001204042fbe7c046f41c0020f81c002058
:020000040000fa
:102d8c0070b4012676054c005d00e6420cd8ee428c
:102d9c000ad825430543154303d0994204d19042e8
:0e2dac0002d1012070bc7047002070bc70473f
:020000040000fa
:102dba004a0010d2520d03231b02ff33d21a0ad43f
:102dca0052421f3209d4400dc90208430123db07ce
:0e2dda001843d040704700207047d017704754
:020000040000fa
:102de800094b5b8b5b070dd0074b80221a76793a2b
:102df8005a831b7e5b0705d5034b04211a8d1a7e67
:0c2e08000a42fbd17047c0460014004293
:020000040000fa
:102e1400002380290fdb812901dd83290bd10721c0
:102e2400136807338b431900083111601a685b6813
:0a2e3400026043600123180070479c
:020000040000fa
:102e3e00020000234832d356591e0b43137004234d
:102e4e004268134005d010231343436001204042d3
:0a2e5e0070470364c3631800fae72d
:020000040000fa
:102e680010b5074b5868074a12689a6801329a6089
:102e78001b68002b02d0024b1b68984710bdc04648
:082e8800e81c002010e000e04e
:020000040000fa
:102e900010b5074b987bc0b23b229a73054b1b6859
:102ea000002b03d0034b59681b68984710bdc046e0
:082eb000002c0042001d00206f
:020000040000fa
:102eb800f7b5002507000c002e000192019b9e42e9
:102ec80001db2800febd62682168380000f062f866
:082ed80001362d180834f1e762
:020000040000fa
:102ee000f7b5002507000c002e000192019b9e42c1
:102ef00001db2800febd62682168380000f0aef8f2
:082f000001362d180834f1e739
:020000040000fa
:102f0800c20f12029d3201000cd001d5494202d4f1
:102f1800013a4900fcd5d205080a0906494100d3ff
:062f280001295041704731
:020000040000fa
:102f3000054a002313609360044951600621116023
:102f4000034a93601360704710e000e07fbb00000d
:042f5000e81c002059
:020000040000fa
:102f540010b50400064b9b6803604801401a8000ca
:102f64004018c000fa218900fff702f8606010bd24
:042f7400e81c002035
:020000040000fa
:102f780041000dd2090e7f390ad449421f3105d4c8
:102f880000020122d2071043c8407047c817704793
:042f9800002070475e
:020000040000fa
:102f9c0010b50c000023002809d10300002a06d02c
:102fac0001212000fff7ccfb0028f9d001231800e9
:022fbc0010bd46
:020000040000fa
:102fc000054b064a5a801a00d37b5bb2002bfbdb11
:102fd000014b188b80b27047002c00421880ffff15
:020000040000fa
:102fe0000fb407b5054b04aa1b6802ca1868019202
:102ff00000f0a6f803b008bc04b01847301e00204b
:020000040000fa
:1030000010b5054c2368002b01d1fff78dfe034b53
:1030100018682368c01a10bdf41c0020f81c00209a
:020000040000fa
:103020009d2201000ad002d4013a4900fcd5d20504
:0e303000080a0906494100d3012950417047a2
:020000040000fa
:10303e00002310b5934206d103201840421e904142
:0e304e009b08c01810bdc45ccc540133f2e7df
:020000040000fa
:10305c0070b50d001400012801d0200070bd2100b6
:0c306c002800fff751fc0028f9d0f6e71f
:020000040000fa
:103078000023054a10b514689c4203d1106003610f
:0c30880001600133180010bd401d002045
:020000040000fa
:1030940010b50400fff7d1fe002805d1a368e2684b
:0a30a400a36163619b18a36210bdd5
:020000040000fa
:1030b000044a137802210b431370537e5bb2002b3a
:0830c000fbdb704700400042f9
:020000040000fa
:1030c800034b1822ff321a81024a5a607047c046e1
:0830d800000400420000330275
:020000040000fa
:1030e000044a138802210b431380937a5bb2002bae
:0830f000fbdb704700140040f7
:020000040000fa
:1030f800044b9b6802689b1a426800209342404137
:08310800c0b27047e81c002072
:020000040000fa
:10311000044a138802210b431380d37b5bb2002b3c
:08312000fbdb7047002c0042ac
:020000040000fa
:1031280010b5044c8200135918095b18181a10516d
:08313800000910bd301d00204c
:020000040000fa
:1031400013b50400019201aafdf726fa6368db06b5
:0831500001d50120404216bd2b
:020000040000fa
:10315800d0400b1cd1409c46203ad34018435242e1
:083168006346934018437047d1
:020000040000fa
:103170009140031c90409c46203a93401943524290
:083180006346d3401943704778
:020000040000fa
:1031880010b5002903d1fff743fd203002e0081ce9
:08319800fff73efd10bdc0462b
:020000040000fa
:1031a0000378002b06d0030001331a78002afbd1e4
:0831b000181a70470020fce72b
:020000040000fa
:1031b80068076c094c836a9074a07ac0008068889c
:0631c80000846c8200810e
:020000040000fa
:1031ce00006810b5002801da002010bdfff7bffd22
:0631de00431cfad1f8e7e2
:020000040000fa
:1031e400034b98611a00937a5bb2002bfbdb7047a8
:0431f4000014004083
:020000040000fa
:1031f800034b00229a601a6801210a431a6070473b
:0432080010e000e0f2
:020000040000fa
:10320c00ab3200003f3000006b3300006b3300002a
:04321c006b33000010
:020000040000fa
:1032200010b5002a05d00023cc5cc454013393426e
:04323000fad110bd02
:020000040000fa
:10323400abaa2abe9788083c281050b9932939367e
:04324400d4aad5b281
:020000040000fa
:1032480010b500f087f8024b1860586010bdc046f2
:04325800101d002025
:020000040000fa
:10325c00c36a10b5002b01d0984710bd0068fff76a
:04326c00f7fefae788
:020000040000fa
:10327000002a06d00300c9b28218197001339342a4
:04328000fbd17047c7
:020000040000fa
:1032840003000a7818001a7001310133002af8d1ba
:043294007047c04679
:020000040000fa
:103298004a424a41802310b55200db00fff77cfa0e
:0232a80010bd57
:020000040000fa
:1032aa008a18914201d10020704700230b70013126
:0232ba00f7e734
:020000040000fa
:1032bc0003010248c018416082607047c81c00209e
:020000040000fa
:1032cc000122d2075140014b18470000691400003d
:020000040000fa
:1032dc00494e4600696e66004e414e006e616e00ae
:020000040000fa
:1032ec0010b5fff7abfffff746f9fff744f910bd38
:020000040000fa
:1032fc0010b5fdf75bff029a039bfdf757fe10bd5f
:020000040000fa
:0e330c000300413b192b01d8202318437047c2
:020000040000fa
:0c331c00014b82225a60704700400041c3
:020000040000fa
:0c332800014b00221a607047301d00208d
:020000040000fa
:0c33340010b50400fff7a4ff200010bd3e
:020000040000fa
:0a33400010b50068fff78afe10bd0b
:020000040000fa
:08334c000048704700366e01d5
:020000040000fa
:08335400286e696c29002500b8
:020000040000fa
:08335c0000487047b41d002079
:020000040000fa
:0633640001204042704709
:020000040000fa
:04336a000020704788
:020000040000fa
:04336e000020704784
:020000040000fa
:043372000020704780
:020000040000fa
:04337600002070477c
:020000040000fa
:04337a000020704778
:020000040000fa
:043380007047c0468c
:020000040000fa
:04338400002070476e
:020000040000fa
:0200000400807a
:0440000077c700d8a6
:020000040000fa
:0200000400807a
:044004005c00ffff5e
:00000001FF
